:020000040800F2
:1000000088520120550200085D0200085F020008C6
:100010006102000863020008650200080000000099
:100020000000000000000000000000009D0100082A
:100030006902000800000000F1010008192C000806
:100040006F0200086F0200086F0200086F020008CC
:100050006F0200086F020008511900086F020008C3
:100060006F020008F11900086F0200086F02000813
:100070006F0200086F0200086F0200086F0200089C
:100080006F0200086F0200086F0200086F0200088C
:100090006F0200086F0200086F0200086F0200087C
:1000A0006F0200086F0200086F0200086F0200086C
:1000B000B52C00086F0200086F0200086F020008EC
:1000C0006F0200086F0200086F0200086F0200084C
:1000D0006F0200081D3900086F0200086F02000857
:1000E0006F0200086F0200086F0200086F0200082C
:1000F0006F0200086F0200086F0200086F0200081C
:100100006F0200086F020008312D00086F0200081E
:100110006F0200086F0200086F0200086F020008FB
:100120006F0200086F0200086F0200086F020008EB
:100130006F0200086F0200086F0200086F020008DB
:100140006F0200086F0200086F0200086F020008CB
:100150006F0200086F0200086F0200086F020008BB
:100160006F0200086F0200086F0200086F020008AB
:100170006F0200086F0200086F0200086F0200089B
:100180006F0200086F020008DFF80CD000F02CFCB2
:10019000004800477D520008885201202A4B196808
:1001A0000868B0E8F04F80F30988BFF36F8F4FF015
:1001B000000080F3118870470000000006480068C6
:1001C000006880F3088862B661B6BFF34F8FBFF353
:1001D0006F8F00DF00BF00BF08ED00E0DFF80C000C
:1001E000016841F470010160704700BF88ED00E0D4
:1001F000EFF30980BFF36F8F134B1A681EF0100FD7
:1002000008BF20ED108A20E9F04F106008B44FF0CD
:10021000500080F31188BFF34F8FBFF36F8F06F04C
:1002200079F94FF0000080F3118808BC196808685C
:10023000B0E8F04F1EF0100F08BFB0EC108A80F34A
:100240000988BFF36F8F7047AC000020EFF3058083
:10025000704700000648804706480047FEE7FEE773
:10026000FEE7FEE7FEE7FEE7FEE7FEE7FEE7FEE766
:100270004D2C00088901000840EA01039B0703D0C8
:1002800009E008C9121F08C0042AFAD203E011F8D5
:10029000013B00F8013B521EF9D27047D2B201E097
:1002A00000F8012B491EFBD270470022F6E710B57B
:1002B00013460A4604461946FFF7F0FF204610BDD4
:1002C0002DE9FE4F804681EA0300C00F0C460090E6
:1002D00021F0004123F00045B8EB0200A94105D20E
:1002E0004046214690461C460B46024623F00040FD
:1002F000104347D0270DC7F30A00C3F30A510290F9
:10030000401A019040286BDAC3F3130040F4801BBD
:100310000098924620B10023D2EB030A63EB0B0B4B
:1003200001985946C0F14002504600F0F0F90646E7
:100330000D4650465946019A00F0F8F910EB0800B6
:100340006141002487EA115284EAE7731A4340D0DE
:10035000009A62B3019A012A4FEA075215DC001B8A
:1003600061EB02014FF0004202EA0752CDE9004280
:10037000001C41F5801132462B4600F07DFA03B097
:10038000BDE8F08F40462146F9E7001B61EB020112
:10039000001C41F5801300185B412018A2F50017DE
:1003A00047EB030140EAD570B6196D4111E06D08C5
:1003B0004FEA360645EAC0754FEA0752001B61EB6B
:1003C0000201001C41F5801149084FEA3000001974
:1003D000514132462B4603B0BDE8F04F00F03DBA24
:1003E0000098012240000023D0EB020263EBE0738F
:1003F000009821464FEAE074B8EB000061EB04017D
:10040000E9E783F000435BE781F0004158E72DE91D
:10041000FE4F81EA030404F0004421F000410094FF
:100420004FF0000B23F0004350EA01045ED052EA83
:1004300003045BD0C3F30A54C1F30A552C44A4F25D
:10044000F3340194A0FB0254C1F3130141F4801171
:10045000C3F3130343F4801301FB024400FB034E78
:10046000840A970A44EA815447EA8357A4FB076841
:1004700002958D0A05FB07854FEA932C04FB0C546B
:100480002705029D4FEA065847EA1637B5EB0805DF
:100490006EEB070C870E920E47EA811742EA831231
:1004A000A7FB0201B6EB0B0164EB00042B0D43EA42
:1004B0000C335E1844EB1C50DA465146E7FB020150
:1004C000C5F313044FEA0B3343EA14534FEA0432E3
:1004D000019C43EA0603A4F10C040294009CCDE9BC
:1004E00000B400F0C9F903B0BDE8F08F0020014668
:1004F000F9E72DE9F04D81EA030404F0004B21F007
:10050000004514464FF0000A23F0004150EA05026E
:1005100020D054EA01021DD0C5F30A570246C5F3A4
:100520001303C1F31300C1F30A5640F4801543F4DA
:100530008013A7EB0608101BD64608F2FD3873EBB4
:10054000050002D308F1010801E092185B41B8F1FF
:10055000000F03DA00200146BDE8F08D00204FF4C3
:100560008011064684460EE0171B73EB050705D382
:10057000121B63EB050306434CEA010C49084FEAE2
:10058000300092185B4150EA0107EDD152EA0300B6
:1005900012D082EA040083EA0501084305D0101B4B
:1005A000AB4106D20122002306E000224FF00043B7
:1005B00002E06FF0010253101AEB06004CEB0851F9
:1005C00010EB0A0041EB0B01BDE8F04D00F045B91E
:1005D0000EB5C10F80EAE0700844CA07002140F25E
:1005E00033438DE80E000A460B4600F045F903B090
:1005F00000BD00F0004230F000400AD0C10D01F50E
:100600006071C0F3160042EA0151C208400711436D
:10061000704700200146704730B5041E71F1000498
:1006200004DB4FF00044404264EB0101141E73F1FF
:10063000000405DB1C464FF00043524263EB040309
:10064000994208BF904230BD01F0004330B421F020
:10065000004150EA010206D00A0DA2F56072C1F312
:100660001301002A02DC30BC00207047440F44EA2A
:10067000C104C100E01830BC00EBC25000F0B6B8B5
:1006800030B50B46014600202022012409E021FA62
:1006900002F59D4205D303FA02F5491B04FA02F55F
:1006A0002844151EA2F10102F1DC30BD2DE9F05FF6
:1006B0000546002092469B468846064681464024D1
:1006C0001BE0284641464746224600F09FF9534624
:1006D0005A46C01A914110D311461846224600F0DE
:1006E00016F82D1A67EB01084F462246012000211B
:1006F00000F00DF817EB00094E41201EA4F1010493
:10070000DFDC484631462A464346BDE8F09F202AB2
:1007100004DB203A00FA02F1002070479140C2F158
:10072000200320FA03F3194390407047202A06DB88
:10073000CB17203A41FA02F043EAE07306E041FAAF
:1007400002F3D040C2F1200291400843194670479D
:100750000FB4002300B589B00CA900910B996FF07C
:100760000042CB601E4B06931E4B07930423CDE93A
:1007700001321D4A089202466B46002000F0DCF967
:1007800009B05DF814FB70B586B006464FF0FF3037
:100790000091CDE90101002015460C460490324637
:1007A000694604A8FFF7D4FF03460498211825B131
:1007B00008B10A4600E022462A6000280DD0002B2E
:1007C00002DD0098884208D0081B0094CDE901049E
:1007D0003246694604A8FFF7BBFF06B070BD0000B3
:1007E000710D00088F0D00082D0A00080029A8BF10
:1007F0007047401C490008BF20F00100704710B44A
:10080000B0FA80FC00FA0CF050EA010404BF10BCFE
:10081000704749B1CCF1200421FA04F411FA0CF12B
:1008200018BF012121430843A3EB0C01CB1D4FEA64
:1008300000614FEA102042BF002010BC704700EB5F
:10084000C35010440029A4BF10BC7047401C49008D
:1008500008BF20F0010010BC704710B5141E73F1E2
:10086000000408DA401C41F1000192185B411A4370
:1008700001D120F0010010BD2DE9F04D92469B46BC
:1008800011B1B1FA81F202E0B0FA80F22032904662
:10089000FFF73DFF04460F4640EA0A0041EA0B011C
:1008A00053465A46084313D0114653EA010019D063
:1008B000C8F14002504600F0A9F805460E465046E1
:1008C00059464246FFF723FF084305D0012004E0C4
:1008D00020463946BDE8F08D0020054346EAE07623
:1008E0002C4337430A986305E40AA0EB0800002272
:1008F000FD0A44EA47540A3002D500200146E9E7E0
:10090000010510196941DDE9084500196941BDE893
:10091000F04DA2E72DE9F04D00231A461B1A8A413B
:1009200003DB00200146BDE8F08DC1F30A52C1F39C
:10093000130141F480154FF0000BD10702D10018CC
:100940006D41521E0027044640F2FF11384601EB6C
:10095000620A3E468046024600204FF4801100F0B5
:1009600055F8C2197141BB1846EB0100B4EB030CFA
:1009700075EB000C04D3E41A65EB000517460E4630
:10098000241908F101006D4180463428E3DDF9198E
:1009900046EB0600091BA84103D24FF0FF32134675
:1009A00001E0002213461BEB070046EB0A51BDE8AD
:1009B000F04DFFF752BFC1F30A52C1F3130140F2E9
:1009C000FF3341F480119A4202DA00200146704759
:1009D00040F233439A42A2F2334202DC524200F028
:1009E00015B8FFF794BE0000064C074D06E0E0681E
:1009F00040F0010394E8070098471034AC42F6D366
:100A0000FFF7C6FBB8730008D8730008202A04DB80
:100A1000203A21FA02F00021704721FA02F3D04077
:100A2000C2F120029140084319467047C0B24FF40A
:100A3000F05100F0BDB900002DE9FF4F087881B0FA
:100A40009946FF2805D0491C2D2804D000240023F6
:100A500008E000230BE00124F9E703EB830300EB3C
:100A60004303491C0878FF28F7D104B15B420020FA
:100A70000090147801462D2C01D02B2C04D1521C4F
:100A80002D2C12D00024009400251678FF2E0ED0B5
:100A90000A24A0FB04C801FB0481002700FB071106
:100AA000521C16EB0C006941EFE70124EBE7994477
:100AB00050EA01020ED00024AA4D2646DFF8A88293
:100AC00000F08AF982468B46B9F1000009DAC9F1D3
:100AD00000071BE001980021C0E9001105B0BDE846
:100AE000F08F074612E0F80707D022462B46304623
:100AF0004146FFF78CFC0646884622462B461046A8
:100B00001946FFF784FC04460D467F10002FEAD1FA
:100B1000B9F1000F324643465046594602DAFFF714
:100B2000E8FC01E0FFF773FC009A0AB181F0004194
:100B3000019AC2E90001D1E72DE9FF4F1F468DB0B0
:100B4000D7E901464FF0FF382E2045464FF0000907
:100B50000B90B9696D1C0E988847396A82468847A0
:100B60000028F6D1BAF1FF3F0AD024F4D064002E59
:100B700011DDBAF12B0F08D0BAF12D0F0BD102E025
:100B8000404611B0ABE744F48064B9696D1C0E981F
:100B900088478246761E6946600501D52D2000E013
:100BA0002B208DF8000001F1010B0DF1200809E068
:100BB000B9696D1C0E98884782460F9844F40074FA
:100BC000761E0560002E02DDBAF1300FF0D00B99D1
:100BD0008A453ED144F0800406E00F99681CA9F1D3
:100BE000010944F400740860B9696D1C761E0E9802
:100BF000884782463028F0D02BE00B998A4505D1F2
:100C0000200603D444F08004761E18E0504603F01A
:100C10007BFC08B30DF11301761E44F400748B4580
:100C200008D2AAF130000BF8010B200607D5A9F174
:100C3000010003E0200602D409F101008146A0056D
:100C400002D50F99681C0860B9696D1C0E98884719
:100C50008246002ED1DC53E0002E51DDBAF1650F43
:100C600002D0BAF1450F4BD1A00549D5B9696D1C29
:100C700024F44074761E0E9888478246002E0CDDC0
:100C80002B2804D0BAF12D0F07D144F48074B96930
:100C90006D1C0E9888478246761EE00501D52D21F1
:100CA00000E02B2108F8011BCDF82C8021E00DF18C
:100CB0002901761E44F4007488450CD2AAF1300054
:100CC00010F0FF0088F8000002D10B99884509D97F
:100CD00008F1010806E0E00501D5244801E042F2F0
:100CE0000F708146B9696D1C0E98884782460F982F
:100CF0000560002E04DD504603F006FC0028D6D126
:100D0000F9690E988847FF208BF8000088F80000EA
:100D10000020069007904B466A4608A906A8FFF7F0
:100D20008BFEA00502D46FF001002AE714F0240F17
:100D30000AD0E00714D1DDE906123868031D3B60D4
:100D40000068C0E900120BE0DDE90601FFF77CFC5A
:100D50000146E00704D13868021D3A60006801606E
:100D600028460EE7000024400000F03FF1D8FFFFC6
:100D7000426842B1016811F8013B23B1521EC0E93B
:100D80000012184670470121C160881E70474268F2
:100D90005AB1C368016843B983688B4205D0491EC4
:100DA000521CC0E90012002070474FF0FF3070471E
:100DB0007F2801D9002208E0064A02EB5002C00752
:100DC000127800D1120902F00F0201209040084071
:100DD00070470000787300080EB540F2334202926B
:100DE0000022CDE900221346FFF746FD03B000BD07
:100DF00070B58C1810F8015B15F0070301D110F8DD
:100E0000013B2A1106D110F8012B03E010F8016B09
:100E100001F8016B5B1EF9D12B0705D40023521E8C
:100E20000DD401F8013BFAE710F8013BCB1A921CF4
:100E300003E013F8015B01F8015B521EF9D5A142F2
:100E4000D8D3002070BD000088B00121344801F0E3
:100E50004DF80021334801F049F8334801F07EF89D
:100E60005CE001203149086000234FF6FF7219460B
:100E70002F48006805F070FC01284FD12D4802F082
:100E800065FC2C488089ADF818002A48C089ADF867
:100E90001A002848008AADF81C002648408AADF8A0
:100EA00010002448808AADF812002248C08AADF8AC
:100EB0001400214803AB02AA04A9009006A800F080
:100EC00087FA4FF480611D4800F07EFF1548144BEF
:100ED000154A04A9009006A800F002FA184880ED0F
:100EE000000A114890ED170A164880ED000A0E48D6
:100EF00090ED1A0A144880ED000A9DED020A13488D
:100F000080ED000A0E4890ED000A8DED020A0023E4
:100F10000A2202A90E48006805F04CFDA1E7000076
:100F2000F40100201C020020440200204C0000209C
:100F3000340000206C01002070000020000C0240F2
:100F40006C0000207C000020800000207400002045
:100F50003C000020F0EE400A90ED081A90ED010AE6
:100F6000B8EEC00A21EE001A90ED010AB8EEC00AF0
:100F7000D0ED081A60EE211A90ED010AB8EEC02AF1
:100F800090ED040A01EE820AC1EE001AC0ED071AC4
:100F900090ED010AB8EEC01AD0ED091AB0EE600A61
:100FA00001EE610A90ED091AD0ED071A01EE801AE0
:100FB00080ED051A90ED071A90ED010AF8EEC01ABF
:100FC000B7EE000A01EE610A90ED081A20EE010A60
:100FD00080ED060A90ED000AB8EEC00A90ED051A01
:100FE00020EE010A80ED090A90ED000AB8EEC00A71
:100FF00090ED061A20EE011A90ED000AF8EEC01AE4
:1010000090ED030A01EE210A80ED080A90ED050A31
:101010007047000010B52DED108B8AB0F0EE408ABD
:10102000B0EE608A044694ED1F0AD4ED110A30EE4A
:10103000200AB0EE40FA94ED1F0AC0EE0F0AC4ED8C
:101040001B0A94ED210AC0EE0F0AC4ED1C0A94EDB0
:101050001D0AD4ED1B0A94ED1D1A38EE411A00EE5C
:10106000810A84ED150A94ED1E0AD4ED1C0A94ED54
:101070001D1A38EE411A00EE810A84ED160A94ED2D
:101080001F0AD4ED1B0A94ED1F1A00EEC10A84ED6D
:10109000170A94ED200AD4ED1B0A94ED201A00EEF5
:1010A000C10A84ED180A94ED210AD4ED1C0A94EDCE
:1010B0001F1A00EEC10A84ED190A94ED220AD4ED3C
:1010C0001C0A94ED201A00EEC10A84ED1A0A94ED70
:1010D000160A38EEC00A84ED1E0A94ED1E0A10EEC0
:1010E000101A0846FFF785FA41EC1C0B9FED7A0BAE
:1010F00053EC102BFFF78BF941EC1A0B94ED150A0A
:1011000010EE101A0846FFF774FA41EC1B0B53EC73
:101110001A2BFFF7D5F841EC190BFFF795FA60672A
:1011200094ED0D0A10EE101A0846FFF762FA41EC32
:101130001C0B94ED190A10EE101A0846FFF759FA25
:10114000CDE9040194ED180A10EE101A0846FFF7D5
:1011500050FA41EC1D0B94ED1A0A10EE101A0846D5
:10116000FFF747FA41EC1E0B9FED5B0B53EC102B86
:10117000FFF74DF953EC1D2BCDE900019DED000B60
:1011800051EC100BFFF73DF9CDE902019DED040B89
:1011900053EC102B9DED020B51EC100BFFF731F9C6
:1011A00053EC1C2BCDE906019DED060B51EC100B09
:1011B000FFF786F841EC1B0B9FED470B53EC102B10
:1011C000FFF725F941EC1A0B94ED170A10EE101AEF
:1011D0000846FFF70EFA53EC1A2BCDE908019DEDF6
:1011E000080B51EC100BFFF76BF841EC190BFFF7F4
:1011F0002BFAE06794ED1A0A10EE101A0846FFF772
:10120000F8F941EC1C0B9FED340B53EC102BFFF75E
:10121000FEF841EC1A0B94ED180A10EE101A08466D
:10122000FFF7E7F941EC1B0B53EC1A2BFFF7E9F83A
:1012300041EC190BFFF708FA8021085194ED1A0AC6
:1012400010EE101A0846FFF7D4F941EC1C0B9FED85
:10125000220B53EC102BFFF7DAF841EC1A0B94ED4C
:10126000190A10EE101A0846FFF7C3F941EC1B0BE0
:1012700053EC1A2BFFF7C5F841EC190BFFF7E4F913
:101280008421085194ED100A10EE101A0846FFF759
:10129000B0F941EC1C0B9FED100B53EC102BFFF73A
:1012A000B6F841EC1A0B94ED1A0A10EE101A084623
:1012B000FFF79FF941EC1B0B53EC1A2BFFF700F8DB
:1012C00041EC190BFFF7C0F9C4F8880094ED150A3A
:1012D0000AB0BDEC108B10BDBA490C022B87863FBB
:1012E0002DE9F0412DED108B04460D4616461F46A4
:1012F000DDF85880B4F9040000EE100AB8EEC00A18
:1013000010EE101A0846FFF774F941EC1D0BB4F902
:10131000020000EE100AB8EEC00A10EE101A0846DD
:10132000FFF767F941EC1E0BB0EE4D1AF0EE6D1AA7
:10133000B0EE4E0AF0EE6E0A02F02AFEB0EE40CA9F
:10134000F0EE60CA9FED1E0B53EC102B51EC1C0B02
:10135000FFF75DF841EC1B0B9FED1B0B53EC102BC3
:10136000FFF7C7F841EC1A0BFFF76EF908EE100A09
:10137000B5F90000832190FBF1F000EE100AB8EE01
:10138000C00AF0EE408A3846B0EE480AFFF7E2FDA8
:10139000B0EE409A4046B0EE680AFFF7DBFDF0EE93
:1013A000409A3046F0EE490AB0EE690AFFF732FE85
:1013B000B0EE40FAB0EE4F0ABDEC108BBDE8F08104
:1013C0000000000000806640EA2E4454FB210940E2
:1013D0002DE9F04F2DED108B8FB004460E46904650
:1013E00099469FEDFE0A10EE107A9FEDFC0A10EE72
:1013F000105A9FEDFA0A10EE10AA9FEDF80A8DED33
:101400000D0A9FEDF60A8DED0C0AB6F90000832156
:1014100090FBF1F000EE100AB8EEC00A10EE107A60
:10142000B6F9020090FBF1F000EE100AB8EEC00A27
:1014300010EE10BAB4F9040000EE100AB8EEC00ABB
:1014400010EE101A0846FFF7D4F841EC1D0BB4F962
:10145000020000EE100AB8EEC00A10EE101A08469C
:10146000FFF7C7F841EC1E0BB0EE4D1AF0EE6D1A07
:10147000B0EE4E0AF0EE6E0A02F08AFDB0EE40CAFF
:10148000F0EE60CA9FEDD60B53EC102B51EC1C0B09
:10149000FEF7BDFF41EC1B0B9FEDD30B53EC102B64
:1014A000FFF727F841EC1A0BFFF7CEF80546B4F921
:1014B000020000EE100AB8EEC00AB4F9040000EE13
:1014C000900AB8EEE01A00EE900AF8EEE00A01EE9B
:1014D000200A10EE101A0846FFF78BF841EC1D0B9E
:1014E000B0EE4D0AF0EE6D0A02F04AFEB0EE40CAD0
:1014F000F0EE60CAB4F90000404200EE100AB8EE07
:10150000C00A10EE101A0846FFF773F841EC1E0BE4
:1015100053EC1C2BFEF7EDFFCDE900019DED000B18
:1015200002F0CAFBB0EE40BAF0EE60BA9FEDAC0B31
:1015300053EC102B51EC1B0BFEF769FF41EC1A0B1F
:101540009FEDA90B53EC102BFEF7D3FF41EC1F0BC3
:10155000FFF77AF88246B4F90400FFF739F841EC56
:101560001B0BB4F90200FFF733F841EC1C0BB0EE93
:101570004B1AF0EE6B1AB0EE4C0AF0EE6C0A02F069
:1015800007FDB0EE40AAF0EE60AA9FED990B53EC78
:10159000102B51EC1A0BFEF73AFFCDE90A016188D6
:1015A00011FB01F1A28812FB0210FFF711F841ECC8
:1015B0001E0BB0EE4E0AF0EE6E0A02F0E1FDB0EE48
:1015C00040CAF0EE60CAB4F900104842FFF700F8D4
:1015D00041EC1D0B53EC1C2BFEF78BFF41EC1B0B5E
:1015E000B0EE4B0AF0EE6B0A02F066FBB0EE40AADA
:1015F000F0EE60AA9FED7E0B53EC102B51EC1A0B12
:10160000FEF705FFCDE90801218811FB01F1A28851
:1016100012FB0210FEF7DCFF41EC1E0BB0EE4E0A8F
:10162000F0EE6E0A02F0ACFDB0EE40CAF0EE60CA19
:10163000B4F90200FEF7CCFF41EC1D0B53EC1C2B60
:10164000FEF757FF41EC1B0BB0EE4B0AF0EE6B0AB6
:1016500002F032FBB0EE40AAF0EE60AA9FED640B00
:1016600053EC102B51EC1A0BFEF7D1FECDE906011D
:10167000B4F90400FEF7ACFF41EC1B0BB4F9001009
:101680004842FEF7A5FF41EC1C0BB0EE4B1AF0EE02
:101690006B1AB0EE4C0AF0EE6C0A02F079FCB0EE78
:1016A00040AAF0EE60AA9FED520B53EC102B51ECC8
:1016B0001A0BFEF7ACFECDE904012846FEF799FFB0
:1016C00041EC1D0B9FED4C0B53EC102BFEF79FFED6
:1016D00041EC1B0B0D98FEF78CFF41EC1D0B9FEDB1
:1016E000480B53EC102BFEF792FE41EC1C0B53EC15
:1016F0001B2BFEF7E5FD41EC1A0BFEF7A5FF0D9045
:101700002846FEF776FF41EC1D0B9FED3B0B53EC9B
:10171000102BFEF77CFE41EC1B0B0C98FEF769FFCB
:1017200041EC1D0B9FED360B53EC102BFEF76FFEBB
:1017300041EC1C0B53EC1B2BFEF7C2FD41EC1A0BCA
:10174000FEF782FF0C903846FEF753FF41EC1E0B6C
:101750009FED2D0B53EC102BFEF759FE41EC1C0BAB
:101760002B480068FEF745FF41EC1D0B53EC1C2B8A
:10177000FEF7A6FD41EC1B0B9FED260B53EC102B47
:10178000FEF745FE41EC1A0BFEF75EFF08EE100A6D
:101790002846FEF72EFF41EC1B0B9FED200B53EC70
:1017A000102BFEF734FE41EC1A0BFEF74DFF08EE4E
:1017B000900A38EE280A164880ED000A5846FEF7CF
:1017C00018FF41EC1D0B9FED100B53EC102BFEF797
:1017D0001EFE41EC1C0B1348006825E000000000D1
:1017E0000000000000806640EA2E4454FB210940BE
:1017F000E3A9471ADCA54C40000000000000D03FE0
:10180000000000000000E83FBA490C022B87863F29
:10181000A40000205C8FC2F5285CEF3F7B14AE472C
:10182000E17A943FA8000020FEF7E3FE41EC1E0B96
:1018300053EC1C2BFEF744FD41EC1B0B1FED0B0B77
:1018400053EC102BFEF7E3FD41EC1A0BFEF7FCFE08
:1018500009EE100A5046FEF7CCFE41EC1B0B1FEDC3
:10186000110B53EC102BFEF7D2FD41EC1A0BFEF7D7
:10187000EBFE09EE900A39EE290A284880ED000AAD
:101880003846FEF7B6FE41EC1B0B2846FEF7B1FECC
:1018900041EC1C0B1FED242BB0EE4B1AF0EE6B1A33
:1018A000B0EE4C0AF0EE6C0A03F0EAFAB0EE40AA91
:1018B000F0EE60AA51EC1A0BFEF7C6FE03905846F4
:1018C000FEF797FE41EC1B0B5046FEF792FE41ECF3
:1018D0001C0B1FED332BB0EE4B1AF0EE6B1AB0EE73
:1018E0004C0AF0EE6C0A03F0CBFAB0EE40AAF0EE30
:1018F00060AA51EC1A0BFEF7A7FE029028990398F4
:101900000860074890ED000A88ED000AC9F80070E9
:101910000FB0BDEC108BBDE8F08F0000A8000020D8
:10192000A40000202DE9FC4706460C4617469846C1
:10193000DDE90A9543463A4621463046CDE9009511
:1019400005F03EFA2946204600F0A2FBBDE8FC87E0
:1019500010B5012000F0A4F8002843D0012000F0C9
:1019600099F80121204800F022FA58B102211E48BE
:1019700000F01DFA012805D11C48C068401C1B4915
:10198000C8602FE00121184800F011FA58B902216F
:10199000154800F00CFA012805D114488068401C55
:1019A000124988601EE001210F4800F000FA50B192
:1019B00002210D4800F0FBF928B90C488068401C52
:1019C0000A4988600EE00021074800F0F0F948B1AC
:1019D0000221054800F0EBF920B90448C068401C1A
:1019E0000249C86010BD0000000002405C010020F8
:1019F00010B5082000F054F8002845D0082000F069
:101A000049F80821214800F0D2F901280BD104211E
:101A10001E4800F0CCF9012805D11D484068401C43
:101A20001B49486030E00821184800F0C0F958B957
:101A30000421164800F0BBF9012805D114480068BC
:101A4000401C134908601FE00421104800F0AFF962
:101A500001280AD108210D4800F0A9F928B90C483D
:101A60000068401C0A4908600EE00421074800F0A5
:101A70009EF948B90821054800F099F920B90448B1
:101A80004068401C0249486010BD00000000024050
:101A90005C0100200149086070470000143C0140CF
:101AA00001460020034A12680A400AB1012000E002
:101AB00000207047143C0140002123498279002A0C
:101AC0003AD00A46126803689A430B461A600A1D08
:101AD000126803689A430B1D1A60027911440A6860
:101AE00003681A430A60184A0832126803689A4366
:101AF000154B08331A601A1D126803689A43124B7B
:101B00000C331A604279102A0ED11A1F126803682A
:101B10001A430D4B08331A601A1D126803681A43E2
:101B2000094B0C331A600DE00749427911440A68E9
:101B300003681A430A6005E0027911440A680368E1
:101B40009A430A6070470000003C014000B585B030
:101B50000121084600F026FF0121880300F042FF22
:101B600000208DF808008DF80B000120019001A9DC
:101B7000124800F0B1F80021084600F0B7FF01203C
:101B8000039000208DF8100010208DF81100012026
:101B90008DF8120003A8FFF78FFF06208DF80000D4
:101BA0000F208DF801008DF8020001208DF8030050
:101BB000684600F067FB05B000BD00000000024071
:101BC00000B585B00121084600F0ECFE0121880334
:101BD00000F008FF00208DF808008DF80B000E20A3
:101BE000019001A9114800F077F80321002000F0CE
:101BF0007DFF0820039000208DF8100010208DF844
:101C0000110001208DF8120003A8FFF755FF0920ED
:101C10008DF8000001208DF801008DF802008DF88C
:101C20000300684600F02EFB05B000BD0000024036
:101C300010B503220021012004F061FD1C49086059
:101C400003220021012004F05AFD1A4908600120F6
:101C500004F044FD18490860012004F03FFD1749D5
:101C60000860012004F03AFD15490860012004F0E5
:101C700035FD1449086000222D21012004F03FFDAC
:101C80001149086000220821012004F038FD0F49A5
:101C9000086000220121052004F031FD0C49086094
:101CA00000220C21052004F02AFD0A49086010BD1D
:101CB00034000020380000202C00002030000020DC
:101CC0005800002054000020400000203C0000206C
:101CD0004400002048000020F0B50A4600210023FF
:101CE000002400BF3DE0012505FA01F3156805EA6F
:101CF00003049C4234D105684F000326BE40B5431F
:101D0000056015794E00B5400668354305601579C4
:101D1000012D02D01579022D16D185684F000326BA
:101D2000BE40B543856055794E00B5408668354361
:101D30008560456801268E40B543456045689679C3
:101D40008E40B6B235434560C5684F000326BE409D
:101D5000B543C560D5794E00B540C6683543C5600A
:101D6000491C1029BFD3F0BDF0B5002300244D0756
:101D7000ED0E02FA05F3CE1000F1200555F82650BD
:101D80004E07F70E0F26BE40B543CF1000F12006D8
:101D900046F82750CE1000F1200555F8265045EAA8
:101DA0000304CE1000F1200545F82640F0BD0246A0
:101DB000002013690B400BB1012000E000207047A8
:101DC000418370470183704742694A4042617047CE
:101DD0000AB1018300E04183704770B502460024D8
:101DE000002500230020958A138B1B0445EA030677
:101DF00026F07F4404EA01068E4201D1012000E072
:101E0000002070BD2DE9FF4704460D460026B1466F
:101E10000427DFF8CC80A6884FF6C07006406846DD
:101E200000F0F0FDDDF808802E48B8FBF0F01FFA56
:101E300080F946EA0906A68020884FF6FE71084020
:101E4000208000262849286888420CD8286840004D
:101E5000B8FBF0F087B2042F00DA04273E4309F103
:101E60000100208427E0E8884BF6FF71884206D104
:101E7000286800EB4000B8FBF0F087B209E0286862
:101E800000EBC00101EB0010B8FBF0F087B247F4A3
:101E90008047C7F30B0008B947F0010747F400403B
:101EA00006434FF4967009FB00F04FF47A7190FBF3
:101EB000F1F0401C2084A683208840F0010020809F
:101EC00026884FF6F5300640A888698908430643FE
:101ED0002680A889298908432081BDE8FF87000062
:101EE00000127A0040420F00A08601000122026029
:101EF0004260012908D19FED130A80ED030A9FED8E
:101F0000120A80ED040A07E09FED100A80ED030A33
:101F10009FED0F0A80ED040A9FED0E0A80ED050A81
:101F20009FED0C0A80ED070A9FED0A0A80ED060A74
:101F30009FED090A80ED080A9FED060A80ED090A67
:101F40007047000017B7D138D8F0F43C6F12833ACD
:101F50005DDC063E00000000CDCC4C3EB7EE000A32
:101F600080ED000A9FED350A80ED010A9FED340AED
:101F700080ED020AB7EE000A80ED030A012101613B
:101F8000002242618261C2619FED2E0A80ED0D0A3E
:101F90009FED2B0A80ED0E0A9FED290A80ED0F0AB6
:101FA0009FED290A80ED100A9FED280A80ED110AA5
:101FB0009FED230A80ED120A9FED210A80ED130A9E
:101FC0009FED230A80ED140A9FED1D0A80ED150A8E
:101FD0009FED1B0A80ED160A9FED190A80ED1B0A82
:101FE0009FED170A80ED1C0A9FED150A80ED180A77
:101FF0009FED130A80ED170A9FED110A80ED190A73
:102000009FED0F0A80ED1A0A9FED120A80ED1F0A5C
:102010009FED0B0A80ED200A9FED090A80ED210A51
:102020009FED0C0A80ED220A9FED050A80ED1D0A46
:102030009FED030A80ED1E0A704700005839343CBA
:10204000000000006F12833AA69B443BD8F0F43C9A
:102050005DDC063ECDCC0C401CB50121082000F013
:10206000A1FC4FF48060009001208DF80400022054
:102070008DF8050069460548FFF72EFE00224FF453
:1020800080610248FFF7A4FE1CBD0000000C024066
:1020900010B5074A136D283242F82310283A136D01
:1020A000126D521C024C2265224642F8230010BDDC
:1020B000880100209FED150A154880ED000A9FED6C
:1020C000150A154880ED000A9FED140A144880EDAA
:1020D000000A9FED140A144880ED000A9FED110AD2
:1020E000124880ED000A9FED0F0A114880ED000AAA
:1020F0009FED0C0A80ED010A9FED0A0A80ED020AAD
:102100009FED080A80ED030A704700006F12833AC2
:1021100030010020A69B443B340100208FC2F53CD7
:1021200038010020000000003C0100204001002098
:102130007832012010B54FF400510948FFF744FEF2
:1021400000231A461946074801F066FA30B94FF4E1
:1021500000510348FFF738FE002010BD0120FCE7C6
:10216000000C02406C0100201CB50121082000F089
:1021700019FC4FF40050009001208DF8040000205D
:102180008DF805008DF807008DF8060069460248B5
:10219000FFF7A2FD1CBD0000000C02401CB5012190
:1021A000102000F0FFFB4FF4F040009001208DF86C
:1021B000040000208DF806008DF8070003208DF83C
:1021C000050069460448FFF787FD4FF4F0410248D7
:1021D000FFF7F6FD1CBD0000001002400EB54CE0FC
:1021E00000230A2269462548006804F0B5FA002851
:1021F00043D0BDF80800012809D101032048FFF7AA
:10220000E1FD4FF400611E48FFF7DAFD09E04FF4ED
:1022100000611B48FFF7D6FD4FF480511848FFF7C7
:10222000CFFDBDF80A00012809D141031448FFF78A
:10223000C9FD4FF480411248FFF7C2FD09E04FF499
:1022400080410F48FFF7BEFD4FF400510C48FFF7E7
:10225000B7FD0098FF2801DDFF2000900198FF28BE
:1022600001DDFF2001900099C800012101F08EFCE2
:102270000199C800022101F089FCB1E74800002063
:102280000010024070B5002100230F22C4781CB357
:10229000174C246804F4E064C4F5E064C4F3072137
:1022A000C1F10404E3B20A4144789C40E1B284786D
:1022B000144021430C07210E0E4C0578615504781B
:1022C00004F01F050124AC4005786D11AD0005F147
:1022D000E025C5F8004109E0047804F01F05012459
:1022E000AC40054D0678761145F8264070BD0000DB
:1022F0000CED00E000E400E080E100E010B5002813
:1023000007DA0A07140E054A00F00F031B1FD45406
:1023100003E00A07130E024A135410BD18ED00E043
:1023200000E400E09060D16001239361B6EE000A02
:1023300082ED050A0023D361B2EE040A82ED820A1F
:10234000014B1B68936270476400002010B52DEDAF
:10235000068B0446A069012822D194ED850A10EE6F
:10236000101A0846FEF745F941EC180B94ED840A63
:1023700010EE101A0846FEF73CF941EC1A0B9FEDDF
:102380000A0B53EC102BFEF742F841EC190B53ECFF
:10239000182BFEF73CF841EC100BBDEC068B10BD82
:1023A0009FED030BF9E70000333333333333B33F8F
:1023B000000000000000000010B52DED068B044663
:1023C000A069012822D194ED850A10EE101A084662
:1023D000FEF70FF941EC180B94ED840A10EE101A79
:1023E0000846FEF706F941EC1A0B9FED190B53EC6A
:1023F000102BFEF70CF841EC190B53EC182BFEF7E1
:1024000078F841EC100BBDEC068B10BD94ED850AFD
:1024100010EE101A0846FEF7ECF841EC180B94ED9C
:10242000840A10EE101A0846FEF7E3F841EC1A0B86
:102430009FED090B53EC102BFDF7E9FF41EC190B55
:1024400053EC182BFEF755F841EC100BDBE70000BE
:10245000333333333333F33FB81E85EB51B8DE3FAC
:1024600010B52DED028B0446A069012813D194ED1F
:10247000840A10EE101A0846FEF7BBF841EC180B60
:102480009FED0E0B53EC102BFDF7C1FF41EC100B31
:10249000BDEC028B10BD94ED840A10EE101A0846B4
:1024A000FEF7A7F841EC180B9FED060B53EC102B31
:1024B000FDF7ADFF41EC100BEAE700003333333397
:1024C0003333E33F9A9999999999D93F2DED0E8B22
:1024D00088B09FEDAF0AF0EE40DA9FEDAD0A8DEDCA
:1024E000020A9FEDAB0A8DED010A9FEDAA0AF0EEFC
:1024F00040AA9FEDA90AB0EE40BA9FEDA80AA848ED
:1025000080ED000A9FEDA70A80ED020AB1EE020AF3
:1025100080ED010AA44A02A901A8FFF703FF36E1F2
:1025200000230A2203A9A148006804F015F9002835
:10253000F5D000230A2219469D48006804F00CF9E2
:1025400001287CD19B480068002869D19DED030AD1
:102550008DED010A9DED04AA9DED010A7DEEC09A64
:10256000002434B39048FFF77BFFB0EE40CAF0EE92
:1025700060CA51EC1C0BFEF767F8894908608A486D
:10258000FFF7E4FEB0EE40CAF0EE60CA51EC1C0B5F
:10259000FEF75AF8824988608348FFF70DFFB0EED6
:1025A00040CAF0EE60CA51EC1C0BFEF74DF87C49B6
:1025B00048607B4890ED000A60EE29BA90ED020A6F
:1025C00020EE0ADAD0ED010AB0EE480A00EEA90AC0
:1025D000B0EE408AB4EEEA8AF1EE10FA02DDB0EE17
:1025E0006A8A06E0B4EECB8AF1EE10FA01D2B0EEC0
:1025F0004B8A00231A4619466D48006804F0DAF940
:102600003BEE8D0A30EE080A8DED020A9DED020ABE
:10261000F0EE408A9DED020AB0EE409A00BF00BF86
:1026200000230A2219466448006804F095F801283E
:102630006ED1624890ED000AB5EEC00A00E05FE09E
:10264000F1EE10FA0CD15E48D0ED000A9FED5D1A54
:1026500080EE810ADDED020A30EEC00A8DED020A3D
:102660009DED020ADFED580A20EE200ADFED570A41
:1026700080EE201A564880ED001A514890ED010A6C
:10268000DDED020A30EEC00A5248D0ED000A30EE0D
:10269000200A4A48D0ED000A30EE200A10EE101A47
:1026A0000846FDF7A6FF41EC1E0B9FED4B0B53ECCC
:1026B000102BFDF7ACFE41EC1C0BFDF7C5FF08EE3F
:1026C000900A3F4890ED010ADDED020A30EE200A43
:1026D0004048D0ED000A30EE600A3848D0ED000ADC
:1026E00030EE200AF7EE000A20EE200AB0EE409A03
:1026F00000231A4619463048006804F05BF907E0E9
:102700009FED230AF0EE408A9FED210AB0EE409A39
:10271000F5EEC08AF1EE10FA07D2B1EE680AF0EEDB
:10272000408A0020ADF81C0002E00120ADF81C003A
:10273000B5EEC09AF1EE10FA07D20020ADF81E00F7
:10274000B1EE490AB0EE409A02E00120ADF81E0059
:102750009FED230A28EE800ABDEEC00A10EE100A93
:102760004FF47A7190FBF1F005909FED1D0A29EE70
:10277000000ABDEEC00A10EE100A90FBF1F00690C0
:1027800000230A2205A91748006804F013F9C7E6D8
:10279000000000000000FA430000FAC30000A0425D
:1027A000DC0100200AD7233CD00200203C0000209E
:1027B0005400002084000020300000205C00002035
:1027C000240000200000964300007F43000048449E
:1027D0007800002060000020CDCCCCCCCCCCF43FE5
:1027E00000007A44480000202DED0C8BB3EE040A63
:1027F000514880ED000AB1EE000A80ED010A9FED1C
:102800004F0A80ED020A9FED4D0AF0EE409A9FEDCF
:102810004B0AB0EE40AA9FED490AF0EE40AA9FEDA8
:10282000470AB0EE408A9FED450AB0EE40DA6420D8
:1028300008EE900A404209EE100A00BF7BE0002338
:102840004FF6FF7219463E48006803F085FF0128E5
:1028500071D13C4800683B494968401A00EE100AB3
:10286000B8EEC00AF0EE409A3648C068354989682B
:10287000401A00EE100AB8EEC00AB0EE40AA0020DE
:102880003049086048608860C86039EE8A0A10EEF6
:10289000101A0846FDF7ADFE41EC1C0B9FED2A0B0C
:1028A00053EC102BFDF7B3FD41EC1B0BFDF7CCFEF9
:1028B0000AEE900A38EE2A0AB0EE408A39EECA0AC9
:1028C00030EE0D0AB0EE40DAB8EEE80AB4EEC08A97
:1028D000F1EE10FA04DDB8EEE80AB0EE408A0AE044
:1028E000B8EEC90AB4EEC08AF1EE10FA03D2B8EE1F
:1028F000C90AB0EE408A00230A221946144800682B
:1029000003F02AFF012816D10B4890ED000A20EEB3
:102910002A0AD0ED010A08EE200A0E4880ED000ACE
:1029200039EECA0A80ED010A00231A461946084802
:10293000006804F03FF882E7E80100200000000092
:10294000380000205C010020000000000000E03F93
:10295000300000202400002000B585B07020ADF8C4
:1029600000000120ADF802000220ADF80C0040F29A
:102970008F10029069460A4800F048FA082108487A
:1029800000F082FA41F2670002906946044800F0C4
:1029900085FA0821024800F0D3FA05B000BD000016
:1029A0000008004029B1064A12680243044B1A602D
:1029B00004E0034A12688243014B1A60704700002A
:1029C0003038024029B1064A12680243044B1A60AB
:1029D00004E0034A12688243014B1A60704700000A
:1029E0004038024029B1064A12680243044B1A607B
:1029F00004E0034A12688243014B1A6070470000EA
:102A000044380240F0B500210022002402250026AF
:102A10000223324F3F6807F00C0121B1042905D091
:102A2000082937D105E02E4F076036E02D4F0760AB
:102A300033E02A4F3F1F3F68C7F38056274F3F1FA1
:102A40003F6807F03F036EB1264FB7FBF3F7DFF89F
:102A50008CC0ACF1040CDCF800C0CCF3881C07FB84
:102A60000CF40CE01E4FB7FBF3F7DFF870C0ACF1CD
:102A7000040CDCF800C0CCF3881C07FB0CF4174FE7
:102A80003F1F3F68C7F301477F1C7D00B4FBF5F78C
:102A9000076002E0124F076000BF00BF0F4F3F68A2
:102AA00007F0F0010909104F7A5C0768D7404760CA
:102AB0000A4F3F6807F4E051890A0B4F7A5C476878
:102AC000D7408760054F3F6807F46041490B064FC8
:102AD0007A5C4768D740C760F0BD00000838024004
:102AE0000024F40000127A001400002030B5002207
:102AF0008B071C0F0F2303FA04F20B4B8C1053F8B7
:102B000024309343084C8D1044F8253023468C1014
:102B100053F824308C07240F00FA04F42343024CAA
:102B20008D1044F8253030BD083801400CB5002028
:102B3000019000903448006840F4803032490860C9
:102B400000BF3148006800F4003000900198401C3C
:102B50000190009818B90198B0F5A04FF1D12A481A
:102B6000006800F4003010B10120009001E0002066
:102B700000900098012846D123484030006840F07A
:102B800080502149403108602048006840F44040AE
:102B90001E4908601C48083000681B49083108605D
:102BA0000846006840F4004008600846006840F4A9
:102BB000A05008601648091F0860081F006840F010
:102BC0008070091F086000BF0F48006800F00070A7
:102BD0000028F9D040F205700E4908600A48083014
:102BE000006820F0030008490831086008460068C2
:102BF00040F00200086000BF03480830006800F0A1
:102C00000C000828F8D10CBD0038024000700040CC
:102C100008544007003C024010B500BF502080F32C
:102C20001188BFF34F8FBFF36F8F00BF04F00EF911
:102C300018B14FF080500449086000BF002080F3B5
:102C4000118800BF10BD000004ED00E010B515486C
:102C5000006840F47000134908601348006840F0B1
:102C600001001149086000200F49083108600E4832
:102C700000680E4908400C4908600D48091D0860AD
:102C8000081F006820F48020091F08600020064902
:102C90000C310860FFF74AFF4FF0006001498039AE
:102CA000086010BD88ED00E000380240FFFFF6FE2E
:102CB0001030002408B50121880700F08CF870B3AB
:102CC0000121880700F078F815480068012826D10E
:102CD00000201349086013480068401C114908602F
:102CE000084600684FF47A7190FBF1F201FB120084
:102CF0000C4908600020009069460B48006803F00A
:102D0000A9FF0098012809D1009838B14FF08050F0
:102D100006490860BFF34F8FBFF36F8F00BF08BD38
:102D20004C000020640000203400002004ED00E08E
:102D300008B501210E4800F04EF8C0B101210C4841
:102D400000F03AF80020009069460A48006803F055
:102D500081FF0098012809D1009838B14FF08050C8
:102D600005490860BFF34F8FBFF36F8F00BF08BDE9
:102D7000000C00403800002004ED00E00EB50121F9
:102D80000420FFF71FFE0020ADF80000ADF80200A0
:102D900040F6EF2001900020ADF808008DF80A0001
:102DA0006946044800F0DAF80121024800F007F80B
:102DB0000EBD000000080040CA430282704721B1E6
:102DC000028842F00102028004E002884FF6FE739E
:102DD0001A400280704730B50246002000230024CC
:102DE000158A05EA0103958905EA010413B10CB1BE
:102DF000012000E0002030BD1AB183890B4383819C
:102E000002E083898B4383817047000070B5002402
:102E100000220023058C4FF6FE7635400584028C97
:102E20008388048B4FF68F752C40B51E2C400D887F
:102E30002C43751E2A408D892A434D882A43104D04
:102E4000A84202D00F4DA84213D14FF6F7752A4081
:102E5000CD892A434FF6FB752A408D882A434FF6C9
:102E6000FF652B404FF6FF552B400D8A2B434D8AB3
:102E70002B43838004838D684563028470BD00000A
:102E800000000140000401400A460021018B4FF67A
:102E9000F7731940114301837047000070B5002497
:102EA00000220023058C4FF6EF7635400584028C16
:102EB0008388048B48F6FF752C404FF6FF452C4065
:102EC0000D884FF6FF7606EA05252C434FF6DF7591
:102ED0002A408D8906EA05152A434D8806EA05151C
:102EE0002A43154DA84202D0144DA8421DD14FF6D9
:102EF0007F752A40CD894FF6FF7606EA05152A43ED
:102F00004FF6BF752A408D8806EA05152A434FF60D
:102F1000FF352B404FF2FF752B400D8A06EA8505E1
:102F20002B434D8A06EA85052B43838004838D68F5
:102F30008563028470BD0000000001400004014070
:102F40000A460021018B4FF2FF7319404FF6FF73C1
:102F500003EA02231943018370470000002202881C
:102F6000184B98420ED0184B98420BD0B0F1804FBE
:102F700008D0164B984205D0154B984202D0154BFD
:102F8000984204D14FF68F731A404B881A43124B64
:102F9000984207D0114B984204D04FF6FF431A4095
:102FA0000B891A4302804B68C3620B880385054B6B
:102FB000984202D0044B984201D18B7A03860123B8
:102FC000838270470000014000040140000400407B
:102FD00000080040000C00400010004000140040B9
:102FE00001464FF40030081AC0F38F2070470000EC
:102FF00000B502461046FFF7F3FF012101FA00F089
:103000000249096808430149086000BD30380240A0
:103010002DE9F04304460E461546DDE907892046B2
:10302000FFF7DEFFC7B2002243E0012090403040AE
:1030300000B93CE0214830F81700012191400843D5
:103040001E4921F81700E0684FEA420C032101FAFB
:103050000CF18843510008FA01F10843E060206850
:103060004FEA420C032101FA0CF18843510005FAA2
:1030700001F108432060012D01D0022D16D16168B5
:103080000120904080B221EA000003FA02F189B2E7
:1030900008436060A0684FEA420C032101FA0CF17A
:1030A0008843510009FA01F10843A06000BF501C99
:1030B000C2B2102AB9DBBDE8F08300006032012003
:1030C0002DE9FC4705460E4617469846DDE90A9A63
:1030D0000EB9BDE8FC872846FFF78AFF00241AE0F6
:1030E0000120A040304000B914E0E10805F12000C3
:1030F00050F821006107CA0E0F21914088436107F3
:10310000C90E0AFA01F10843E20805F1200141F86D
:10311000220000BF641C102CE2D33B460222314641
:103120002846CDE90089FFF773FF00BFD1E7000013
:103130001CB504464CB9042001210B460A46CDE9D2
:103140000010C0211148FFF7BBFF012C0AD1042059
:1031500001210B460A46CDE900104FF440710B489F
:10316000FFF7AEFF022C0AD1042001210B460A46CC
:10317000CDE900104FF410710448FFF7A1FF032CB4
:1031800003D10421024800F0F9F81CBD00040240FC
:10319000005400401CB5044654B9042001210B46DC
:1031A0000A46CDE900104FF440611148FFF788FF4F
:1031B000012C09D1042001210B460A46CDE900105B
:1031C00003210C48FFF77CFF022C09D104200121C8
:1031D0000B460A46CDE9001030210748FFF770FF83
:1031E000032C03D10421054800F0C8F81CBD0000E1
:1031F0000004024000140240001C0240005800403D
:103200001CB504469CB9042001210B460A46CDE9B1
:10321000001081011048FFF753FF042001210B46E5
:103220000A46CDE90010C1010C48FFF749FF012C07
:103230000AD1042001210B460A46CDE900104FF4C3
:10324000C0710748FFF73CFF032C03D10421054858
:1032500000F094F81CBD000000000240000802408D
:10326000001C0240005C00407FB504460E46154637
:103270003D48844221D13D48006840F400103B495C
:1032800008603046FFF754FF39480068A84201D96A
:10329000374805603648006800904FF48040ADF82C
:1032A0000C000020ADF80400ADF80800ADF80A00ED
:1032B0004BF6FF70ADF8060048E02E48844221D15D
:1032C0002A48006840F48000284908603046FFF72B
:1032D00061FF27484068A84201D925484560244835
:1032E000406800904FF48040ADF80C000020ADF82D
:1032F0000400ADF80800ADF80A004BF6FF70ADF819
:10330000060023E01C48844220D11848006840F49D
:103310000000164908603046FFF772FF14488068C5
:10332000A84201D9124885601148806800904FF486
:103330008040ADF80C000020ADF80400ADF80800A6
:10334000ADF80A004BF6FF70ADF80600208820F0BB
:103350000100208069462046FEF754FD208840F099
:10336000010020807FBD0000005400404038024032
:103370002401002000580040005C0040704770B5F8
:1033800004460D460026012300222946204600F06F
:103390009BF800B90126204600F0EEF8304670BDDB
:1033A0002DE9F04105460E46144600231A463146E3
:1033B000284600F089F82146284600F017F92846EB
:1033C00000F0DAF8002301223146284600F07CF8AC
:1033D000284600F053F807463846BDE8F081000063
:1033E00070B50446208840F48060208044F6206058
:1033F0000A49086007E009480068401E074908605C
:1034000008B9012070BD06492046FEF7E6FC0028F9
:10341000F1D0208AC5B22846F4E700002001002040
:10342000400003002DE9F0410746884615461C463A
:10343000069E012300224146384600F045F8294601
:10344000384600F0D3F801231A464146384600F0CA
:103450003BF80BE02EB9384600F010F804F8010BE9
:1034600004E03846FFF7BCFF04F8010B3000A6F17A
:1034700001018EB2EED1BDE8F081000070B50446C6
:10348000208820F480602080208840F40070208014
:1034900044F620600A49086007E009480068401EB9
:1034A0000749086008B9012070BD06492046FEF7AB
:1034B00094FC0028F1D0208AC5B22846F4E7000029
:1034C00020010020400003002DE9F04104460D4694
:1034D00016461F46208840F48070208044F6206005
:1034E0002349086008E022480068401E204908601F
:1034F00010B90120BDE8F081A08A00F00100002889
:10350000F1D01FB1208840F480602080A6B925F05A
:103510000100208244F620601549086007E0144845
:103520000068401E1249086008B90120E2E7A08A3D
:1035300000F002000028F2D0012E15D145F0010064
:10354000208244F620600A49086007E008480068C5
:10355000401E0749086008B90120CBE7054920460D
:10356000FEF73BFC0028F1D0208B0020C2E70000D2
:103570002001002002000300014644F620600D4AAD
:10358000106007E00B480068401E0A4A106008B946
:1035900001207047888A00F080000028F2D0888AD5
:1035A00000F004000028EDD0088840F40070088086
:1035B0000020EEE7200100202DE9F04106460F46ED
:1035C00014461D4600231A4639463046FFF77CFF55
:1035D0002146304600F00AF82946304600F006F849
:1035E0003046FFF7C9FFBDE8F081000044F62062D5
:1035F000084B1A6004E0074A1268521E054B1A6015
:10360000828A02F080021AB9024A1268002AF2D1B4
:1036100001827047200100202DE9F04104468846D0
:1036200015461E4648F0D00020703E4A00213E4814
:10363000FFF71AFE21783C48FFF7A1FE10B90120E0
:10364000BDE8F081217875223748FFF7A9FE682888
:1036500001D00220F4E7217800236B223248FFF7E3
:10366000ABFF21781C223048FFF79AFE074607F08F
:10367000E70040EAC500C7B221783B461C222A4831
:10368000FFF79AFF21781B222748FFF789FE07469C
:1036900007F0E70040EAC600C7B221783B461B228C
:1036A0002148FFF789FF35B1012D09D0022D0CD03B
:1036B000032D14D10EE09FED1D0A84ED020A0FE0E8
:1036C0009FED1B0A84ED020A0AE09FED1A0A84EDC1
:1036D000020A05E09FED180A84ED020A00BF00BF50
:1036E00000BF36B1012E09D0022E0CD0032E14D10A
:1036F0000EE09FED120A84ED010A0FE09FED100A23
:1037000084ED010A0AE09FED0F0A84ED010A05E04D
:103710009FED0D0A84ED010A00BF00BF00BF00202D
:103720008EE70000801A0600005C00400000803830
:1037300000000039000080390000003A2D23FA3BD8
:103740002D237A3C90C1F93C90C1793D10B52DED07
:10375000028B86B004460E200090217802AB3B22FB
:103760002648FFF75FFE9DF809009DF8081040EA23
:10377000012000B2A0819DF80B009DF80A1040EADC
:10378000012000B2E0819DF80D009DF80C1040EA88
:10379000012000B220829DF80F009DF80E1040EA33
:1037A000012000B208EE100AB8EEC80ADFED140AD4
:1037B00080EE201A9FED130A31EE000A84ED060A0E
:1037C0009DF811009DF8101040EA012000B26082BF
:1037D0009DF813009DF8121040EA012000B2A0826B
:1037E0009DF815009DF8141040EA012000B2E08217
:1037F000002006B0BDEC028B10BD0000005C004054
:103800000000AA43B81E124204E003480068401CAE
:1038100001490860F9E70000A00000201FB51C2046
:103820008DF80C0000208DF80D0001208DF80E00A1
:103830008DF80F0003A8FEF725FD01210846FFF7CC
:10384000C1F8132001904AF20F40ADF800000020AB
:10385000ADF80800ADF8020069464FF08040FFF770
:103860007DFB012211469007FFF7C6FA0121880768
:10387000FFF7A5FA1FBD00001FB532208DF80C0020
:1038800006208DF80D008DF80E0001208DF80F0038
:1038900003A8FEF7F7FC01210820FFF793F8C820E2
:1038A00001904AF20F40ADF800000020ADF808008A
:1038B000ADF8020069460648FFF750FB01221146A9
:1038C0000348FFF799FA01210148FFF778FA1FBD75
:1038D000000C00401CB501210820FFF763F802220C
:1038E0000C210D48FEF740FA02220D210A48FEF78E
:1038F0003BFA4FF44050009000208DF806008DF800
:10390000070002208DF8040003208DF805006946A9
:103910000148FEF7E1F91CBD000C024010B5002083
:103920001A49086040F22551194800F047F860B381
:1039300017488088C4B20A2C0DD0164800782D286C
:1039400009DA154813490978445412480078401C94
:103950001049087018E000200E49087000230B4A37
:103960000D490E48006803F0F9F80848006801287E
:103970000AD10648006838B14FF080500849086005
:10398000BFF34F8FBFF36F8F00BF10BD98000020B3
:10399000001001409C000020F404002040000020A2
:1039A00004ED00E021B1828942F40052828104E0FA
:1039B00082894DF6FF731A408281704770B50246C6
:1039C000002400230025002040F66A16B14200D1F1
:1039D00000BFC1F3421501F01F03012606FA03F3ED
:1039E000012D02D19689334006E0022D02D1168ABC
:1039F000334001E0968A33400C12012606FA04F4A3
:103A00001688344013B10CB1012000E0002070BDD5
:103A1000F0B50346002400260025002040F66A1772
:103A2000B94200D100BF1846C1F3421401F01F068D
:103A3000012707FA06F5012C01D10C3004E0022C15
:103A400001D1103000E014301AB107682F4307602D
:103A500002E00768AF430760F0BD00002DE9FF47B3
:103A600005460E460024A14600BFA046B08900B11D
:103A700000BF2C8A24F44054F08804432C82AC8983
:103A800041F20C608443B08831890843718908434E
:103A90000443AC81AC8A24F44074B0890443AC8202
:103AA0006846FEF7AFFF2048854202D01F48854296
:103AB00002D1DDF80C9001E0DDF80890A88900F44F
:103AC000004040B109EBC90000EB09103168490022
:103AD000B0FBF1F707E009EBC90000EB0910316812
:103AE0008900B0FBF1F76420B7FBF0F00401200976
:103AF000642101FB1078A88900F4004040B1322015
:103B000000EBC800B0FBF1F000F00700044308E050
:103B1000322000EB08106421B0FBF1F000F00F0040
:103B200004432C81BDE8FF870010014000140140D0
:103B30000DE001200649086000230A2205490648D5
:103B4000006802F009FE10B1024801F035F9F0E713
:103B5000500000202105002040000020C1F3080291
:103B60008280704770B505460C460BE000BF288880
:103B700000F040000028FAD021782846FFF7EEFF39
:103B800014F8010B20780028F0D170BD012902D172
:103B9000034A106002E0024A121D106070470000E4
:103BA000340800400EB5002450E00A2094FBF0F1E8
:103BB00000FB11406946461800230A22314624487A
:103BC000006802F0C9FD002840D0641C00230A22CE
:103BD00019462048006802F0BFFD012836D10025B3
:103BE00025E01DF80500312806D032280AD03328F8
:103BF0000ED0342818D111E017488068401C1649AF
:103C0000886012E01448C068401C1349C8600CE08A
:103C100011484068401C1049486006E00E480068A2
:103C2000401C0D49086000E000BF00BF6D1C0A2069
:103C300094FBF0F100FB1140A842D2DC00240023E9
:103C40001A4619460348006802F0B4FEADE70000CA
:103C500044000020300000205C0100200FB41CB59F
:103C60000A46521ECDE9000207A9054B6A4606988E
:103C700000F052FC009A002111701CBC5DF814FB8E
:103C8000474C000803B401984100009850EAC12055
:103C900018BF04204A0D18BF40F0010040F2FF7227
:103CA000B2EB515F08BF40F00200012808BF0520B9
:103CB00002B070470000000070B59B482DED020B6C
:103CC0002DED068B079D25F00044A04218DC974897
:103CD000844202DC0AD1069840B19DED060BBDEC92
:103CE000068B02B0BDE8704000F022BB002DCCBFB7
:103CF0009FED8F0B9FED900BBDEC068B02B070BD5E
:103D00008F48A04215DD8F48A042D8BF4FF0FF3446
:103D100058DD9DED060B51EC100BFFF7B3FF0428A7
:103D200008BF00F019FB9DED060BBDEC068B02B041
:103D300070BD9DED060B51EC100B01F095F8CDE92F
:103D4000060181489FED828BA0423CDD8248A04263
:103D50001FDD00249FED82AB9DED060B53EC1A2B6B
:103D600051EC100BFCF7ACFA9DED060B41EC190B76
:103D700053EC1A2B51EC100BFCF749FB53EC182BAE
:103D8000FCF73FFB53EC192BFCF7B3FBCDE9060125
:103D900049E09DED060B012453EC182B51EC100B60
:103DA000FCF78EFA9DED060B41EC190B53EC182B2A
:103DB00051EC100BFCF725FB53EC192BFCF799FB8E
:103DC000CDE906012FE06848A0421FDD02249FEDE7
:103DD000689B9DED060B53EC192B51EC100BFCF777
:103DE00016FB53EC182BFCF76BFA9DED060B41EC20
:103DF000180B53EC192B51EC100BFCF702FB53EC96
:103E0000182BFCF776FBCDE906010CE09DED060BC7
:103E1000032453EC102B9FED580B51EC100BFCF7C7
:103E200068FBCDE906019DED060B53EC102B51EC20
:103E3000100BFCF7ECFA41EC180B53EC182BFCF7C9
:103E4000E6FA41EC190B4E480621B0EE490AF0EEB5
:103E5000690A784400F0F0F953EC182B51EC100B80
:103E6000FCF7D5FA41EC180B4648B0EE490AF0EEE3
:103E7000690A0521784400F0DFF953EC192B51EC65
:103E8000100BFCF7C4FA41EC100B51EC180B53EC7F
:103E9000102B002C0EDAFCF713FA9DED061B53ECE9
:103EA000112BFCF7B4FA9DED061B53EC112BFCF71C
:103EB000ABFA35E0FCF704FA9DED061B53EC112B31
:103EC000FCF7A5FA41EC100B2F48784400EBC40036
:103ED00090ED001B51EC100B53EC112BFCF791FAF9
:103EE0009DED061B53EC112BFCF78BFA41EC100BEC
:103EF0002648784400EBC40090ED001B51EC100BF9
:103F000053EC112BFCF780FA41EC100B002DA2BFF3
:103F1000BDEC068B02B070BD51EC100B81F000417E
:103F200041EC100B01E70000000010440000F07F9E
:103F3000182D4454FB21F93F182D4454FB21F9BF9F
:103F40000000DC3F0000203E0000F33F00000000C6
:103F5000000000000000F03F0000E63F000000000D
:103F6000000000000000004000800340000000004E
:103F7000000000000000F83F000000000000F0BF5B
:103F8000EA340000A03400002A340000E2330000CC
:103F900070B56B4E2DED040B2DED028B82B0DDF86C
:103FA0001CC0DDE905235C422CF000411C4341EAC2
:103FB000D474049D22F00040B44205D86C422C43D6
:103FC00040EAD474B4420BD99DED061B9DED040B61
:103FD00002B0BDEC028B04B0BDE8704000F0B2B995
:103FE000ACF14054A4F17F641C430BD0022404EADA
:103FF000AC7444EAD27405439FED538B9FED542B70
:1040000007D015E09DED040B51EC100B00F026FEDF
:1040100042E0002C11BF012C9DED040B02B0BDEC61
:10402000028B04BF04B070BD022C38D0032C3BD0EF
:104030000B439FED491B9FED4A0B0AD0B14218D1AB
:10404000B04209D121F0804120F0804007910590D5
:104050000FE0002A15DA10E0434B7B44002C08BF28
:1040600093ED000B0DD0012C10D0022C17D0032C97
:104070001AD0B0421DD1002A03DAB0EE410AF0EEA8
:10408000610A02B0BDEC028B04B070BD93ED000B71
:1040900051EC100B81F0004141EC100BF1E7B0EE58
:1040A000480AF0EE680AECE7B0EE420AF0EE620A67
:1040B000E7E7401A00153C28C8BF8DED000B19DC5E
:1040C000BCF1000FBEBF10F13C0F9FED290B8DED31
:1040D000000B0FDB9DED060B53EC102B9DED040B3D
:1040E00051EC100BFCF705FA00F0BEFE00F0B6FD37
:1040F000CDE90001002C08BF9DED000BC1D0012CC3
:1041000010D0022C9FED1C0B53EC102B9DED000BDF
:1041100051EC100B0DD0FCF774F953EC182BFCF795
:1041200070F9B9E7019880F0004001909DED000B17
:10413000A7E7FCF766F953EC182BFCF765F9ABE73A
:104140000000F07F00000000182D4454FB210940BE
:10415000182D4454FB2109C0182D4454FB21F9BFEC
:10416000182D4454FB21F93F1233000000000000D9
:104170000000000000000000075C143326A6A13CEC
:1041800000B52DED048BB0EE409AF0EE609A83B04E
:1041900051EC190BFCF7BEFB41EC180B18EE100AA2
:1041A00018EE901A8DED008B002818BF01200843EF
:1041B00020F00040C0F17F6000F1E040C00F14D05B
:1041C00019EE101A19EE900A8DED009B002918BF08
:1041D0000121084320F00040C0F17F6000F1E04081
:1041E000C00F04BF012000F0D7F8B0EE480A03B0BA
:1041F000F0EE680ABDEC048B00BD0000000000007A
:1042000000B583B09FED0A0B0A4601468DED000B09
:104210006846FCF7B8FA9DED000B51EC100BFCF76B
:1042200013FA03B000EE100A00BD00000000000009
:10423000000000000000000070B504462DED028B68
:104240004D1E00EBC500B0EE408AF0EE608A90EDA6
:10425000000B35F0060017D053EC182B51EC100B67
:10426000FCF7D5F841EC100B6D1E04EBC50090ED8A
:10427000001B51EC100B53EC112BFCF721F841EC17
:10428000100B35F00600E7D1022D36D0042D1CD0DE
:10429000062D1CBFBDEC028B70BD53EC182B51ECEE
:1042A000100BFCF7B4F894ED0A1B53EC112BFCF740
:1042B00007F853EC182BFCF7AAF894ED081B53EC05
:1042C000112BFBF7FDFF41EC100B53EC182B51ECBD
:1042D000100BFCF79CF894ED061B53EC112BFBF72D
:1042E000EFFF53EC182BFCF792F894ED040B53EC12
:1042F000102BFBF7E5FF41EC100B53EC182B51ECA6
:10430000100BFCF784F894ED021B53EC112BFBF718
:10431000D7FF53EC182BFCF77AF894ED001B53EC05
:10432000112BFBF7CDFFBDEC028B41EC100B70BDE8
:1043300010B553EC102B51EC100BFBF7C1FF41EC07
:10434000100B10BD10B553EC112B51EC100BFBF7FB
:10435000B7FF41EC100B10BD9FED050B10B553ECF2
:10436000102B51EC100BFCF752F841EC100B10BD68
:10437000000000000000001002E008C8121F08C181
:10438000002AFAD170477047002001E001C1121FD6
:10439000002AFBD170470000014908607047000007
:1043A000580100202DE9FF5FDDE90220010DDDF855
:1043B00038B0024318D044F61050A1F2FF31414307
:1043C0000D140F98012820D0A5EB0B00401C5FEACC
:1043D000000A4FF00004474EDFF81C91A0465046FB
:1043E00016D5CAF1000728E00F98012443A201283E
:1043F00008D0002100980F9BC0E90021C0E90243CA
:10440000BDE8FF9F6FEA0B01F4E7CBF10000DEE7A8
:10441000074612E0F80707D0224633464046494691
:10442000FBF7F5FF8046894622463346104619467B
:10443000FBF7EDFF04460E467F10002FEAD1DDE9C1
:104440000201BAF1000F42464B4602DAFBF7DFFFEA
:1044500001E0FCF74EF804460E460022284BFCF71C
:10446000DBF803D84FF0FF30014607E00022254B70
:1044700020463146FBF724FFFCF79DFA102409E0A3
:10448000002C0ADB0A220023FCF710F9019B3032D2
:104490001A55641E50EA0102F2D1641C019AC4F15B
:1044A000110314440F9A012A03D0012208430DD1AD
:1044B0000AE0084304D000204FF0110B0F9080E772
:1044C000A3EB0B056D1E0DE05B4504DD4FF0000214
:1044D00005F1010504E003DA4FF00002A5F1010542
:1044E000002AECD000980F99C0E90231C0E90045DC
:1044F00086E70000000024400000F03F300000008C
:104500000000F0430000E03F30380A2801D20120CB
:1045100070470020704700002DE9FF4F95B09B4683
:104520008946064600250FE2252877D10024274634
:10453000F84A0121059400E0044316F8013F203BAE
:1045400001FA03F01042F7D130782A2811D06FF029
:104550002F033078A0F13002092A16D8059A44F0CA
:10456000020402EB820203EB42021044761C059027
:10457000EFE759F8042B0592002A03DA504244F47D
:104580000054059044F00204761C30782E2816D191
:1045900016F8010F44F004042A280DD06FF02F0202
:1045A0003078A0F13003092B09D807EB870302EB21
:1045B0004303C718761CF3E759F8047B761C307860
:1045C0006C280FD006DC4C2817D068280DD06A283C
:1045D00014D104E0742810D07A280FD10DE044F4EF
:1045E00000140AE044F4801401E044F440147278AA
:1045F000824202D104F58014761C761C307866283D
:104600000BD013DC582877D009DC002875D045285A
:10461000F6D04628F4D047281AD19DE118E0632847
:1046200035D0642879D0652812D195E1702873D0EF
:1046300008DC6728F1D069286FD06E280DD06F286C
:1046400006D1B5E073282CD0752875D0782874D0A1
:104650005A46179990476D1C75E1C4F30250022821
:1046600009D003280DD0D9F8001004280DD00D6012
:1046700009F1040967E1D9F80010EA17C1E900520D
:10468000F6E7D9F800100D80F2E70D70F0E719F8A1
:10469000041B8DF8001000208DF80100EA4601206F
:1046A00003E059F804AB4FF0FF3061074FF0000111
:1046B00002D40DE008F101018846B9420FDA8045C5
:1046C000F8DB1AF808100029F4D108E008F101011C
:1046D00088468142FADB1AF808100029F6D10598BD
:1046E0005B46A0EB080721463846179A00F094FA7B
:1046F000284400EB080507E04DE029E10DE01AF839
:10470000010B5A4617999047B8F10108F7D25B465A
:1047100021463846179A13E142E00A220092C4F378
:1047200002524FF0000A022A08D059F804CB032A9B
:104730004FEAEC710AD00DE029E02AE009F1070107
:1047400021F00702F2E802C1914609E00FFA8CFC61
:104750004FEAEC71042A03D14FFA8CFC4FEAEC715A
:10476000002907DA0A460021DCF1000C61EB0201A6
:104770002D2202E0220504D52B228DF804200122EF
:1047800003E0E20701D02022F7E7904659E00A2132
:1047900002E010220DE010214FF0000A00910BE022
:1047A00010224FF0000A44F004040827009203E0AE
:1047B00008224FF0000A0092C4F30252022A05D0E8
:1047C00059F804CB0021032A08D009E009F10701B8
:1047D00021F00702F2E802C1914605E01FFA8CFCC5
:1047E000042A01D10CF0FF0C4FF00008220728D555
:1047F000702806D0009B83F0100353EA0A0305D00B
:104800000EE040228DF80420012208E05CEA01025B
:1048100006D030228DF804208DF805000222904643
:10482000009B83F0080353EA0A030AD15CEA010201
:1048300001D1620705D530228DF804204FF0010820
:104840007F1E582804D034A003900EA802900DE0DB
:1048500036A0F9E753466046009AFBF727FF8446E7
:104860000398825C0298401E029002705CEA01008C
:10487000F0D1029806A9081A00F1200A600702D5B3
:1048800024F4803400E00127574502DDA7EB0A003D
:1048900000E0002000EB0A01009005984144401A16
:1048A0000590E00306D45B462146179A059800F070
:1048B000B3F90544002706E001A85A46C05D1799E0
:1048C00090476D1C7F1C4745F6DBE0030CD55B462B
:1048D0002146179A059800F09FF9054404E030201E
:1048E0005A46179990476D1C0099481E0090002960
:1048F000F5DC08E0029802995A460078491C0291BA
:10490000179990476D1CBAF10001AAF1010AF1DC78
:1049100065E1000009280100303132333435363783
:1049200038396162636465660000000030313233FB
:10493000343536373839414243444546000000009B
:1049400000F058F90544761C307800287FF4ECAD6F
:1049500019B02846BDE8F08F620700D4062709F198
:10496000070222F0070CFCE80223E14603F00048AE
:104970005FEA080C02D00FF2702C0DE05FEA045CD5
:1049800002D50FF2682C07E05FEAC47C02D00FF278
:10499000602C01E0AFF2700C4FF0FF3823F00043C1
:1049A000CDF850C065280CD006DC452809D0462833
:1049B0001DD047283DD13DE0662818D067287ED11C
:1049C00038E00021112F01DB112000E0781CCDE937
:1049D000000106A90EA8FFF7E5FCDDE90F010E9A1C
:1049E00003910021009207F1010A04914DE04FF07C
:1049F00000400097CDE9011006A90EA8FFF7D2FCF0
:104A0000DDE90F0203920E9B11990022DDF80CA044
:104A10000093049211B9791C00EB010AB7EB0A006C
:104A200004D4C0F1FF3007F1010A0490AAEB07009B
:104A3000019044E0012F00DA01270021112F01DD50
:104A4000112000E03846CDE9000106A90EA8FFF7C5
:104A5000A9FCDDE90F010E9A039100210491009257
:104A6000BA4621070CD40399514500DA8A46BAF1B7
:104A7000010F05DD009AAAF10101515C302908D02F
:104A8000B84202DA10F1040F06DA0121CDE9011073
:104A900015E0AAF10101E9E7002805DC04990144C9
:104AA0000491AAEB000102E0411C514500DD8A4659
:104AB0000499401A401C01904FF0004002902007DA
:104AC00004D40198504501DBCDF8048000208DF816
:104AD0004F0002980DF14F07B0F1004F25D02B2069
:104AE0000E9002984FF0020800280CDA4042029023
:104AF0002D200E9007E00A210298FBF7C1FD30310E
:104B0000029007F8011DB8F10001A8F10108F2DCDC
:104B100002980028EFD1791E0E980870307800F0C6
:104B2000200040F0450007F8020D12A8C01B00F15C
:104B300007081498007800B1012000EB0A010198E1
:104B400001EBE07105984144401A401E0590E003D6
:104B500006D45B462146179A059800F05DF8054497
:104B60001498007818B15A46179990476D1CE003C5
:104B700024D55B462146179A059800F04DF8054468
:104B80001CE00498002807DBDDE90301884203DD0F
:104B90000098405C179901E0179930205A469047D9
:104BA000049805F10105401C04900198401E0190F5
:104BB00004D12E205A46179990476D1CBAF1000176
:104BC000AAF1010ADDDC05E017F8010B5A46179936
:104BD00090476D1CB8F10001A8F10108F4DC5B46B8
:104BE0002146179A0598ABE62D0000002B00000027
:104BF000200000002DE9F041044600251E4617461E
:104C0000880404D405E039462020B0476D1C641E9A
:104C1000F9D52846BDE8F0812DE9F041044600258C
:104C20001E469046C80301D5302700E0202788049F
:104C300004D505E041463846B0476D1C641EF9D5E1
:104C40002846BDE8F0814A68002A06D00A68531C4D
:104C50000B6010704868401E4860704710B541EC0A
:104C6000100BFFF729F851EC100B10BD7CB5044672
:104C7000651C00212846FFF7C3FA8DED010A207854
:104C80008DF800009DF800003138062872D2DFE868
:104C900000F003192F455B7200230A22194642488F
:104CA000006801F059FD01280BD19DED010A3F4834
:104CB00080ED000A00231A4619463B48006801F0BF
:104CC00079FE6FE000230A2219463748006801F098
:104CD00043FD01280BD19DED010A344880ED020A05
:104CE00000231A4619463048006801F063FE59E077
:104CF00000230A2219462C48006801F02DFD0128E6
:104D00000BD19DED010A294880ED010A00231A46C6
:104D100019462548006801F04DFE43E000230A22B1
:104D200019462348006801F017FD01280BD19DEDBD
:104D3000010A204880ED000A00231A4619461C4843
:104D4000006801F037FE2DE000230A2219461848BA
:104D5000006801F001FD01280BD19DED010A154805
:104D600080ED020A00231A4619461148006801F036
:104D700021FE17E015E000230A2219460C480068BE
:104D800001F0EAFC01280BD19DED010A094880EDF4
:104D9000010A00231A4619460548006801F00AFE78
:104DA00000E000BF00BF7CBD54000020DC010020FB
:104DB00058000020E80100207CB5044601250026AB
:104DC0002078302816D10FE0605D2D2804D0605D7A
:104DD0000DF80600761C06E020200DF80600684657
:104DE000FFF744FF00266D1C605D2B28ECD101F01D
:104DF00013F835E02078702802D101F00DF82FE08B
:104E00002078722818D006DC642811D06C2817D0BE
:104E10006F2824D118E0732802D075281FD103E031
:104E2000002001F0FFF81AE0012001F0FBF816E085
:104E3000022001F0F7F812E0032001F0F3F80EE091
:104E4000042001F0EFF80AE00648006818B90120D4
:104E50000449086002E000200249086000BF00BF6A
:104E60007CBD00008400002082B0CDE9000121F06B
:104E7000004001909DED000B02B051EC100B70470B
:104E800000B52DED108B8DB0B0EE409AF0EE609A2B
:104E9000B0EE41AAF0EE61AAB0EE428AF0EE628A6C
:104EA000C1480068FBF7A5FB41EC1C0B53EC1A2B27
:104EB000FBF7AAFA41EC1B0BFBF7C6FBBB490860EA
:104EC00008460068FBF795FB41EC1E0B53EC182BD2
:104ED000FBF79DFA41EC1C0BB5480068FBF789FB1A
:104EE00041EC1D0B53EC1C2BFBF7EAF941EC1B0BBF
:104EF000FBF7AAFBAE490860AE480068FBF779FBF8
:104F000041EC1E0BAC4890ED020A10EE101A084658
:104F1000FBF76FFBCDE90601A74890ED010A10EE03
:104F2000101A0846FBF765FBCDE90201A24890ED97
:104F3000030A10EE101A0846FBF75BFB53EC182B24
:104F4000CDE900019DED000B51EC100BFBF75FFA72
:104F500041EC1F0B9DED020B53EC102BFBF751FAAC
:104F6000CDE904019DED060B53EC102B9DED040BD8
:104F700051EC100BFBF745FA53EC1E2BCDE9080161
:104F80009DED080B51EC100BFBF79AF941EC1D0B52
:104F900053EC182BFBF73BFA41EC1B0B864890EDCA
:104FA000000A10EE101A0846FBF723FB41EC1C0B1D
:104FB00053EC1B2BFBF784F9CDE90A019DED0A0B9D
:104FC00051EC100BFBF740FB7B490860084690ED65
:104FD000030A10EE101A0846FBF70BFB41EC1E0B00
:104FE00053EC182BFBF713FA41EC1C0B724890EDB5
:104FF000010A10EE101A0846FBF7FBFA41EC1D0BF4
:1050000053EC1C2BFBF7FDF941EC1B0BFBF71CFBD6
:1050100069494860084690ED030A10EE101A0846E8
:10502000FBF7E7FA41EC1E0B53EC182BFBF7EFF9FB
:1050300041EC1C0B604890ED020A10EE101A084675
:10504000FBF7D7FA41EC1D0B53EC1C2BFBF7D9F9FE
:1050500041EC1B0BFBF7F8FA57498860574800688A
:10506000FBF7C7FA41EC1E0B53EC182BFBF7CFF9FB
:1050700041EC1C0B504890ED030A10EE101A084644
:10508000FBF7B7FA41EC1D0B53EC1C2BFBF718F99F
:1050900041EC1B0BFBF7D8FA4749C860084690ED76
:1050A000000A4748D0ED000A30EE200A454880ED5E
:1050B000000A084690ED000A4248D0ED000A80EE52
:1050C000201A414880ED001A084690ED020A3D483A
:1050D000D0ED000A80EE201A3B4880ED011A3448DA
:1050E0000068FBF786FA41EC1C0B53EC192BFBF71D
:1050F0008BF941EC1B0BFBF7A7FA344908603248E7
:10510000D0ED000A084690ED001A294890ED000AFB
:1051100000EE810A80ED000A2B48D0ED010A084616
:1051200090ED001A204890ED000A00EE810A80ED13
:10513000000A214890ED000A2348D0ED000A1E48DD
:1051400090ED001A00EEC10A80ED000A90ED010A10
:105150001D48D0ED000A184890ED011A00EEC10A72
:1051600080ED010A90ED020A1748D0ED010A1248BD
:1051700090ED001A00EEC10A80ED020A90ED030ADC
:105180001148D0ED010A0C4890ED011A00EEC10A59
:1051900080ED030A06480068FBF72BFA41EC100B80
:1051A0000DB0BDEC108B00BD40010020440100207B
:1051B0003C01002030010020783201203401002021
:1051C0003801002054010020480100205001002037
:1051D00010B588B0044601211020FDF703FC012121
:1051E0000220FDF7DFFBC020069002208DF81C0096
:1051F0008DF81D0000208DF81E0001208DF81F0085
:1052000006A91C48FCF768FD072206211948FCF78F
:10521000ABFD072211461748FCF7A6FD02940020BB
:10522000ADF80C00ADF80E00ADF81000ADF81400AC
:105230000C20ADF8120002A90F48FEF70FFC012266
:1052400040F225510C48FEF7E3FB25208DF80400C1
:105250000A208DF8050000208DF8060001208DF849
:10526000070001A8FDF70EF801210348FEF79AFB9D
:1052700008B010BD00040240001001401CB5FDF74D
:10528000E5FCFCF7E9FEFEF7C9FAFCF75FFCFCF76A
:1052900097FCFCF769FF00BFFCF74CFF0028FBD12F
:1052A000FCF7C6FCFEF716FBFDF768FDFDF754FBA7
:1052B000FCF700FFFCF772FFFEF7DEFA4FF4165022
:1052C000FFF786FF00202E4908652E4908601D2043
:1052D00001234FF4FA722CA1CDE900042F48FCF70A
:1052E00021FB0A20022380222DA1CDE900043048B1
:1052F000FCF718FB0B20032380222EA1CDE900042C
:105300003048FCF70FFB0A20042380222EA1CDE9B0
:1053100000043248FCF706FB02200523322230A1AC
:10532000CDE900043348FCF7FDFA0620034680224D
:1053300031A1CDE900043548FCF7F4FA0020072339
:10534000082233A1CDE900043448FCF7EBFA092127
:105350000620FCF7D3FF09210846FCF7CFFF062102
:105360001C20FCF7CBFF05213220FCF7C7FF0621EC
:105370002520FCF7C3FF01F07BF800201CBD0000D6
:10538000880100206400002042616C616E63696ED8
:10539000675049445461736B00000000CD2400083D
:1053A00044697374616E63655049445461736B0062
:1053B000E92700084163717569736974696F6E54F8
:1053C00061736B00490E00084D6F746F72436F6E0E
:1053D00074726F6C65725461736B0000DD2100089C
:1053E000557064617465456E636F64657254617372
:1053F0006B000000A53B00085553415254526563B1
:10540000656976655461736B00000000313B0008EC
:10541000546573745461736B000000000938000810
:105420002DE9F04105460E461C4807681C480068F7
:10543000001D00F031FE50B91948006890F82C109A
:105440000120884017490968814316480160681C9B
:1054500038B936B112480168091D134800F05AFEE8
:105460001AE07C190E4800684460BC4207D20C4820
:105470000168091D0D48006800F032FE0CE0084884
:105480000168091D0A48006800F02AFE0948006802
:10549000844201D207480460BDE8F081C0000020CA
:1054A000AC000020C400002024060020B40000202E
:1054B000B0000020DC00002010B5044600F036FEED
:1054C00024480068401C234908602348006840B90C
:1054D000214804600846006801280DD100F0CAF98F
:1054E0000AE01E48006838B91B480068C06AE16AD3
:1054F000884201D81848046019480068401C1849BF
:10550000086008460068206494F82C100120884048
:1055100014490968084313490860E16A01EB8101F5
:10552000114A02EB8100211D00F0F4FD00F028FE7D
:105530000A48006868B108480068C06AE16A8842A1
:1055400007D24FF0805009490860BFF34F8FBFF377
:105550006F8F10BDBC000020AC000020C8000020F0
:10556000D8000020C40000207005002004ED00E0F9
:1055700010B500F0DBFD10480068D0B90F4800F00E
:105580009FFD0F4800F09CFD0C480E4908600C4838
:105590000D49086000220C210A2001F0B0F80649EC
:1055A00008600846006820B108A10348006800F0C0
:1055B00071FE00F0E5FD10BDF0000020380600206F
:1055C0004C060020E8000020EC000020546D7251D1
:1055D0000000000070B523E000F094FF134800685D
:1055E00008B9012000E00020054601F083FDBDB9A7
:1055F00000F09CFD0D48C068C468201D00F04CFD03
:105600000B480068401E0A4908600A480068401EAE
:105610000849086000F0B4FD204600F060F800BFC3
:10562000044800680028D7D170BD00001006002093
:10563000BC000020B800002070B504460D46206C68
:1056400070B1216CE0680844E0606168E0688842FD
:1056500001D32068E0602846226CE168FAF70CFE6E
:1056600070BD2DE9F04104460F4615464FF0000885
:10567000A66B206C40B9206860BB606801F08AFCB2
:1056800080460020606025E07DB93946226CA06824
:10569000FAF7F2FD216CA0680844A060D4E901107B
:1056A000884217D32068A06014E03946226CE06875
:1056B000FAF7E2FD216CE068401AE0602168E068DA
:1056C000884203D2216C6068401AE060022D01D14B
:1056D00006B1761E701CA0634046BDE8F08110B58F
:1056E0000446206B00F06AFD204600F067FD10BD07
:1056F0000146084A126812680AB9012200E0002235
:105700000A600A6822B9034A1268D268106800E089
:1057100000207047E8000020094A22F00700094AEB
:1057200010600022074B5A60074A084B5A6000225B
:105730001A600146044A4A601A460A60704700002F
:105740006806002008010020F82B0100100100204D
:1057500000BFFFF73FFF064800680128F9D94FF066
:10576000805004490860BFF34F8FBFF36F8FF0E79D
:105770007005002004ED00E010B504464CB1002097
:1057800060602060E06000231A461946204601F060
:1057900011F910BD2DE9F04106460D461746984611
:1057A000069C0DB9246000E02760E66325640121B2
:1057B000204601F0B3F884F84C80BDE8F0812DE973
:1057C000F05F82460F4690469B460A9E0C9C4FEA2D
:1057D0008801A522206BFAF761FDA8F10100216B79
:1057E00001EB800929F0070909F0070008B9012039
:1057F00000E0002050B900BF502080F31188BFF3B3
:105800004F8FBFF36F8F00BF00BFFEE7002507E09B
:10581000795D04F134004155785D00B902E06D1CFA
:105820000A2DF5D300BF00213D200155052E00D3E0
:105830000426E662A6640020E064201D00F04DFC12
:1058400004F1180000F049FC2461C6F10500A061D4
:1058500064620020206584F854005A465146484648
:1058600000F0C4FA20600B9808B10B980460BDE802
:10587000F09F000010B5002407E004EB84010F4AFC
:1058800002EB810000F01CFC641C052CF5D30C48D5
:1058900000F016FC0B4800F013FC0B4800F010FC65
:1058A0000A4800F00DFC0A4800F00AFC04480949C7
:1058B000086004480849086010BD00007005002019
:1058C000D4050020E8050020FC050020100600207B
:1058D00024060020B0000020B40000202DE9F04193
:1058E00004460D4616461F464FF0000865602461C9
:1058F000B5420CD8F01BA169884202D34FF00108D1
:1059000011E0211D0948006800F0EAFB0BE0BE42EF
:1059100004D2BD4202D34FF0010804E0211D044827
:10592000006800F0DDFB4046BDE8F081EC0000209F
:10593000E800002070B5054600F0F8FBA86B08B938
:10594000012400E0002400F01BFC204670BD70B56F
:10595000054600F0EBFBA86BE96B884201D10124FE
:1059600000E0002400F00CFC204670BDF8B50546B0
:105970000F4616480068C068C468201D00F08CFB04
:10598000E06901281DD1A06941192B463A462046FD
:10599000FFF7A4FFA8B1002003462A460146009065
:1059A000204601F055FC064656B900BF502080F352
:1059B0001188BFF34F8FBFF36F8F00BF00BFFEE7AB
:1059C00000BF2046616A8847F8BD0000E80000205B
:1059D00070B586B06AE00398002867DB059C6069B3
:1059E00008B9012000E0002010B9201D00F054FB90
:1059F00002A800F0BDF8054603980A2854D2DFE853
:105A000000F009050731334F0608323400BF00BFEC
:105A100000BF00BF0498A269811803462A462046A9
:105A2000FFF75CFFE8B12046616A8847E06901281A
:105A300017D1002000900498A1694218002319464C
:105A4000204601F005FC064656B900BF502080F301
:105A50001188BFF34F8FBFF36F8F00BF00BFFEE70A
:105A600000BF22E000BF20E000BF0498A061A06951
:105A700008B1012000E0002050B900BF502080F3A1
:105A80001188BFF34F8FBFF36F8F00BF00BFFEE7DA
:105A9000A06941192B462A462046FFF71FFF04E064
:105AA000204600F08BFB00E000BF00BF00231A4639
:105AB00003A90448006800F04FFE00288BD106B00F
:105AC00070BD0000F0000020F8B505460C4600F05F
:105AD00019FD684600F04CF80646009820BB44B912
