:020000040800F2
:10000000704F0120550200085D0200085F020008E1
:100010006102000863020008650200080000000099
:100020000000000000000000000000009D0100082A
:100030006902000800000000F10100089D2200088C
:100040006F0200086F0200086F0200086F020008CC
:100050006F0200086F020008611400086F020008B8
:100060006F020008011500086F0200086F02000807
:100070006F0200086F0200086F0200086F0200089C
:100080006F0200086F0200086F0200086F0200088C
:100090006F0200086F0200086F0200086F0200087C
:1000A0006F0200086F0200086F0200086F0200086C
:1000B000392300086F0200086F0200086F02000871
:1000C0006F0200086F0200086F0200086F0200084C
:1000D0006F0200088D2F00086F0200086F020008F1
:1000E0006F0200086F0200086F0200086F0200082C
:1000F0006F0200086F0200086F0200086F0200081C
:100100006F0200086F020008A12300086F020008B8
:100110006F0200086F0200086F0200086F020008FB
:100120006F0200086F0200086F0200086F020008EB
:100130006F0200086F0200086F0200086F020008DB
:100140006F0200086F0200086F0200086F020008CB
:100150006F0200086F0200086F0200086F020008BB
:100160006F0200086F0200086F0200086F020008AB
:100170006F0200086F0200086F0200086F0200089B
:100180006F0200086F020008DFF80CD000F02CFCB2
:1001900000480047CD480008704F01202A4B1968DD
:1001A0000868B0E8F04F80F30988BFF36F8F4FF015
:1001B000000080F3118870470000000006480068C6
:1001C000006880F3088862B661B6BFF34F8FBFF353
:1001D0006F8F00DF00BF00BF08ED00E0DFF80C000C
:1001E000016841F470010160704700BF88ED00E0D4
:1001F000EFF30980BFF36F8F134B1A681EF0100FD7
:1002000008BF20ED108A20E9F04F106008B44FF0CD
:10021000500080F31188BFF34F8FBFF36F8F05F04D
:1002200095FC4FF0000080F3118808BC196808683D
:10023000B0E8F04F1EF0100F08BFB0EC108A80F34A
:100240000988BFF36F8F704788000020EFF30580A7
:10025000704700000648804706480047FEE7FEE773
:10026000FEE7FEE7FEE7FEE7FEE7FEE7FEE7FEE766
:10027000D12200088901000840EA01039B0703D04E
:1002800009E008C9121F08C0042AFAD203E011F8D5
:10029000013B00F8013B521EF9D27047D2B201E097
:1002A00000F8012B491EFBD270470022F6E710B57B
:1002B00013460A4604461946FFF7F0FF204610BDD4
:1002C0002DE9FE4F804681EA0300C00F0C460090E6
:1002D00021F0004123F00045B8EB0200A94105D20E
:1002E0004046214690461C460B46024623F00040FD
:1002F000104347D0270DC7F30A00C3F30A510290F9
:10030000401A019040286BDAC3F3130040F4801BBD
:100310000098924620B10023D2EB030A63EB0B0B4B
:1003200001985946C0F14002504600F0D8F90646FF
:100330000D4650465946019A00F0E0F910EB0800CE
:100340006141002487EA115284EAE7731A4340D0DE
:10035000009A62B3019A012A4FEA075215DC001B8A
:1003600061EB02014FF0004202EA0752CDE9004280
:10037000001C41F5801132462B4600F065FA03B0AF
:10038000BDE8F08F40462146F9E7001B61EB020112
:10039000001C41F5801300185B412018A2F50017DE
:1003A00047EB030140EAD570B6196D4111E06D08C5
:1003B0004FEA360645EAC0754FEA0752001B61EB6B
:1003C0000201001C41F5801149084FEA3000001974
:1003D000514132462B4603B0BDE8F04F00F025BA3C
:1003E0000098012240000023D0EB020263EBE0738F
:1003F000009821464FEAE074B8EB000061EB04017D
:10040000E9E783F000435BE781F0004158E72DE91D
:10041000FE4F81EA030404F0004421F000410094FF
:100420004FF0000B23F0004350EA01045ED052EA83
:1004300003045BD0C3F30A54C1F30A552C44A4F25D
:10044000F3340194A0FB0254C1F3130141F4801171
:10045000C3F3130343F4801301FB024400FB034E78
:10046000840A970A44EA815447EA8357A4FB076841
:1004700002958D0A05FB07854FEA932C04FB0C546B
:100480002705029D4FEA065847EA1637B5EB0805DF
:100490006EEB070C870E920E47EA811742EA831231
:1004A000A7FB0201B6EB0B0164EB00042B0D43EA42
:1004B0000C335E1844EB1C50DA465146E7FB020150
:1004C000C5F313044FEA0B3343EA14534FEA0432E3
:1004D000019C43EA0603A4F10C040294009CCDE9BC
:1004E00000B400F0B1F903B0BDE8F08F0020014680
:1004F000F9E72DE9F04D81EA030404F0004B21F007
:10050000004514464FF0000A23F0004150EA05026E
:1005100020D054EA01021DD0C5F30A570246C5F3A4
:100520001303C1F31300C1F30A5640F4801543F4DA
:100530008013A7EB0608101BD64608F2FD3873EBB4
:10054000050002D308F1010801E092185B41B8F1FF
:10055000000F03DA00200146BDE8F08D00204FF4C3
:100560008011064684460EE0171B73EB050705D382
:10057000121B63EB050306434CEA010C49084FEAE2
:10058000300092185B4150EA0107EDD152EA0300B6
:1005900012D082EA040083EA0501084305D0101B4B
:1005A000AB4106D20122002306E000224FF00043B7
:1005B00002E06FF0010253101AEB06004CEB0851F9
:1005C00010EB0A0041EB0B01BDE8F04D00F02DB936
:1005D0000EB5C10F80EAE0700844CA07002140F25E
:1005E00033438DE80E000A460B4600F02DF903B0A8
:1005F00000BD00F0004230F000400AD0C10D01F50E
:100600006071C0F3160042EA0151C208400711436D
:10061000704700200146704701F0004330B421F0DC
:10062000004150EA010206D00A0DA2F56072C1F342
:100630001301002A02DC30BC00207047440F44EA5A
:10064000C104C100E01830BC00EBC25000F0B6B8E5
:1006500030B50B46014600202022012409E021FA92
:1006600002F59D4205D303FA02F5491B04FA02F58F
:100670002844151EA2F10102F1DC30BD2DE9F05F26
:100680000546002092469B46884606468146402401
:100690001BE0284641464746224600F0B7F953463C
:1006A0005A46C01A914110D311461846224600F00E
:1006B00016F82D1A67EB01084F462246012000214B
:1006C00000F00DF817EB00094E41201EA4F10104C3
:1006D000DFDC484631462A464346BDE8F09F202AE3
:1006E00004DB203A00FA02F1002070479140C2F189
:1006F000200320FA03F3194390407047202A06DBB9
:10070000CB17203A41FA02F043EAE07306E041FADF
:1007100002F3D040C2F120029140084319467047CD
:100720000FB4002300B589B00CA900910B996FF0AC
:100730000042CB601E4B06931E4B07930423CDE96A
:1007400001321D4A089202466B46002000F0F4F97F
:1007500009B05DF814FB70B586B006464FF0FF3067
:100760000091CDE90101002015460C460490324667
:10077000694604A8FFF7D4FF03460498211825B161
:1007800008B10A4600E022462A6000280DD0002B5E
:1007900002DD0098884208D0081B0094CDE90104CE
:1007A0003246694604A8FFF7BBFF06B070BD0000E3
:1007B000710D00088F0D00082D0A00080029A8BF40
:1007C0007047401C490008BF20F00100704710B47A
:1007D000B0FA80FC00FA0CF050EA010404BF10BC2F
:1007E000704749B1CCF1200421FA04F411FA0CF15C
:1007F00018BF012121430843A3EB0C01CB1D4FEA95
:1008000000614FEA102042BF002010BC704700EB8F
:10081000C35010440029A4BF10BC7047401C4900BD
:1008200008BF20F0010010BC704710B5141E73F112
:10083000000408DA401C41F1000192185B411A43A0
:1008400001D120F0010010BD2DE9F04D92469B46EC
:1008500011B1B1FA81F202E0B0FA80F22032904692
:10086000FFF73DFF04460F4640EA0A0041EA0B014C
:1008700053465A46084313D0114653EA010019D093
:10088000C8F14002504600F0C1F805460E465046F9
:1008900059464246FFF723FF084305D0012004E0F4
:1008A00020463946BDE8F08D0020054346EAE07653
:1008B0002C4337430A986305E40AA0EB08000022A2
:1008C000FD0A44EA47540A3002D500200146E9E710
:1008D000010510196941DDE9084500196941BDE8C4
:1008E000F04DA2E72DE9F04D00231A461B1A8A416C
:1008F00003DB00200146BDE8F08DC1F30A52C1F3CD
:10090000130141F480154FF0000BD10702D10018FC
:100910006D41521E0027044640F2FF11384601EB9C
:10092000620A3E468046024600204FF4801100F0E5
:100930006DF8C2197141BB1846EB0100B4EB030C12
:1009400075EB000C04D3E41A65EB000517460E4660
:10095000241908F101006D4180463428E3DDF919BE
:1009600046EB0600091BA84103D24FF0FF321346A5
:1009700001E0002213461BEB070046EB0A51BDE8DD
:10098000F04DFFF752BFC1F30A52C1F3130140F219
:10099000FF3341F480119A4202DA00200146704789
:1009A00040F233439A42A2F2334202DC524200F058
:1009B0002DB8FFF794BE000030B5041E71F100049D
:1009C00004DB4FF00044404264EB0101141E73F15C
:1009D000000405DB1C464FF00043524263EB040366
:1009E000994208BF904230BD064C074D06E0E068D2
:1009F00040F0010394E8070098471034AC42F6D366
:100A0000FFF7C6FBF0690008106A0008202A04DB23
:100A1000203A21FA02F00021704721FA02F3D04077
:100A2000C2F120029140084319467047C0B24FF40A
:100A3000F05100F0BDB900002DE9FF4F087881B0FA
:100A40009946FF2805D0491C2D2804D000240023F6
:100A500008E000230BE00124F9E703EB830300EB3C
:100A60004303491C0878FF28F7D104B15B420020FA
:100A70000090147801462D2C01D02B2C04D1521C4F
:100A80002D2C12D00024009400251678FF2E0ED0B5
:100A90000A24A0FB04C801FB0481002700FB071106
:100AA000521C16EB0C006941EFE70124EBE7994477
:100AB00050EA01020ED00024AA4D2646DFF8A88293
:100AC00000F08AF982468B46B9F1000009DAC9F1D3
:100AD00000071BE001980021C0E9001105B0BDE846
:100AE000F08F074612E0F80707D022462B46304623
:100AF0004146FFF78CFC0646884622462B461046A8
:100B00001946FFF784FC04460D467F10002FEAD1FA
:100B1000B9F1000F324643465046594602DAFFF714
:100B2000E8FC01E0FFF773FC009A0AB181F0004194
:100B3000019AC2E90001D1E72DE9FF4F1F468DB0B0
:100B4000D7E901464FF0FF382E2045464FF0000907
:100B50000B90B9696D1C0E988847396A82468847A0
:100B60000028F6D1BAF1FF3F0AD024F4D064002E59
:100B700011DDBAF12B0F08D0BAF12D0F0BD102E025
:100B8000404611B0ABE744F48064B9696D1C0E981F
:100B900088478246761E6946600501D52D2000E013
:100BA0002B208DF8000001F1010B0DF1200809E068
:100BB000B9696D1C0E98884782460F9844F40074FA
:100BC000761E0560002E02DDBAF1300FF0D00B99D1
:100BD0008A453ED144F0800406E00F99681CA9F1D3
:100BE000010944F400740860B9696D1C761E0E9802
:100BF000884782463028F0D02BE00B998A4505D1F2
:100C0000200603D444F08004761E18E0504602F01B
:100C1000B3FF08B30DF11301761E44F400748B4545
:100C200008D2AAF130000BF8010B200607D5A9F174
:100C3000010003E0200602D409F101008146A0056D
:100C400002D50F99681C0860B9696D1C0E98884719
:100C50008246002ED1DC53E0002E51DDBAF1650F43
:100C600002D0BAF1450F4BD1A00549D5B9696D1C29
:100C700024F44074761E0E9888478246002E0CDDC0
:100C80002B2804D0BAF12D0F07D144F48074B96930
:100C90006D1C0E9888478246761EE00501D52D21F1
:100CA00000E02B2108F8011BCDF82C8021E00DF18C
:100CB0002901761E44F4007488450CD2AAF1300054
:100CC00010F0FF0088F8000002D10B99884509D97F
:100CD00008F1010806E0E00501D5244801E042F2F0
:100CE0000F708146B9696D1C0E98884782460F982F
:100CF0000560002E04DD504602F03EFF0028D6D1EC
:100D0000F9690E988847FF208BF8000088F80000EA
:100D10000020069007904B466A4608A906A8FFF7F0
:100D20008BFEA00502D46FF001002AE714F0240F17
:100D30000AD0E00714D1DDE906123868031D3B60D4
:100D40000068C0E900120BE0DDE90601FFF764FC72
:100D50000146E00704D13868021D3A60006801606E
:100D600028460EE7000024400000F03FF1D8FFFFC6
:100D7000426842B1016811F8013B23B1521EC0E93B
:100D80000012184670470121C160881E70474268F2
:100D90005AB1C368016843B983688B4205D0491EC4
:100DA000521CC0E90012002070474FF0FF3070471E
:100DB0007F2801D9002208E0064A02EB5002C00752
:100DC000127800D1120902F00F0201209040084071
:100DD00070470000B06900080EB540F2334202923D
:100DE0000022CDE900221346FFF72EFD03B000BD1F
:100DF00070B58C1810F8015B15F0070301D110F8DD
:100E0000013B2A1106D110F8012B03E010F8016B09
:100E100001F8016B5B1EF9D12B0705D40023521E8C
:100E20000DD401F8013BFAE710F8013BCB1A921CF4
:100E300003E013F8015B01F8015B521EF9D5A142F2
:100E4000D8D3002070BD000086B034E001201A49DC
:100E5000086000234FF6FF7219461848006804F036
:100E600097FF012827D1164801F0A8FF1448808970
:100E7000ADF810001248C089ADF812001048008A81
:100E8000ADF814000E48408AADF808000C48808A7E
:100E9000ADF80A000A48C08AADF80C0001AB6A46FA
:100EA00002A904A800F010F800230A2269460548A8
:100EB000006805F09BF8C9E74C00002034000020D2
:100EC000480100203C0000202DE9F04F2DED108B53
:100ED0008FB004460E46904699469FEDFE0A10EEEE
:100EE000107A9FEDFC0A10EE105A9FEDFA0A10EEF0
:100EF00010AA9FEDF80A8DED0D0A9FEDF60A8DED13
:100F00000C0AB6F90000FFF763FB41EC1B0B9FEDE9
:100F1000F20B53EC102BFFF7ECFA41EC1A0BFFF736
:100F20007BFB0746B6F90200FFF752FB41EC1B0BB7
:100F30009FEDE90B53EC102BFFF7DBFA41EC1A0B9A
:100F4000FFF76AFB8346B4F9040000EE100AB8EE1E
:100F5000C00A10EE101A0846FFF74BFB41EC1D0BC0
:100F6000B4F9020000EE100AB8EEC00A10EE101A32
:100F70000846FFF73EFB41EC1E0BB0EE4D1AF0EEBB
:100F80006D1AB0EE4E0AF0EE6E0A02F039FBB0EECA
:100F900040CAF0EE60CA9FEDD20B53EC102B51EC1F
:100FA0001C0BFFF734FA41EC1B0B9FEDCF0B53ECFE
:100FB000102BFFF79EFA41EC1A0BFFF72DFB0546AD
:100FC000B4F9020000EE100AB8EEC00AB4F9040049
:100FD00000EE900AB8EEE01A00EE900AF8EEE00A91
:100FE00001EE200A10EE101A0846FFF702FBCDE9C9
:100FF00000019DED000B02F0FBFBB0EE40CAF0EEED
:1010000060CAB4F90000404200EE100AB8EEC00A0F
:1010100010EE101A0846FFF7ECFA41EC1D0B53ECEA
:101020001C2BFFF766FA41EC1B0BB0EE4B0AF0EEFF
:101030006B0A02F079F9B0EE40AAF0EE60AA9FEDDB
:10104000A80B53EC102B51EC1A0BFFF7E0F941EC15
:101050001E0B9FEDA50B53EC102BFFF74AFA41EC4A
:101060001F0BFFF7D9FA8246B4F90400FFF7B0FA74
:1010700041EC1B0BB4F90200FFF7AAFA41EC1C0B80
:10108000B0EE4B1AF0EE6B1AB0EE4C0AF0EE6C0AB2
:1010900002F0B6FAB0EE40AAF0EE60AA9FED940B13
:1010A00053EC102B51EC1A0BFFF7B1F9CDE90A0103
:1010B000618811FB01F1A28812FB0210FFF788FA88
:1010C00041EC1E0BB0EE4E0AF0EE6E0A02F090FB01
:1010D000B0EE40CAF0EE60CAB4F900104842FFF723
:1010E00077FA41EC1D0B53EC1C2BFFF702FA41EC95
:1010F0001B0BB0EE4B0AF0EE6B0A02F015F9B0EEE6
:1011000040AAF0EE60AA9FED7A0B53EC102B51EC45
:101110001A0BFFF77CF9CDE90801218811FB01F1D9
:10112000A28812FB0210FFF753FA41EC1D0BB0EE40
:101130004D0AF0EE6D0A02F05BFBB0EE40CAF0EE35
:1011400060CAB4F90200FFF743FA41EC1E0B53ECFE
:101150001C2BFFF7CEF941EC1B0BB0EE4B0AF0EE67
:101160006B0A02F0E1F8B0EE40AAF0EE60AA9FED43
:10117000600B53EC102B51EC1A0BFFF748F9CDE93B
:101180000601B4F90400FFF723FA41EC1B0BB4F994
:1011900000104842FFF71CFA41EC1C0BB0EE4B1A52
:1011A000F0EE6B1AB0EE4C0AF0EE6C0A02F028FA80
:1011B000B0EE40AAF0EE60AA9FED4D0B53EC102B61
:1011C00051EC1A0BFFF723F9CDE904012846FFF78C
:1011D00010FA41EC1D0B9FED480B53EC102BFFF761
:1011E00016F941EC1B0B0D98FFF703FA41EC1D0BB0
:1011F0009FED430B53EC102BFFF709F941EC1C0B4F
:1012000053EC1B2BFFF75CF841EC1A0BFFF704FAC9
:101210000D902846FFF7EDF941EC1D0B9FED360BC5
:1012200053EC102BFFF7F3F841EC1B0B0C98FFF776
:10123000E0F941EC1D0B9FED320B53EC102BFFF747
:10124000E6F841EC1C0B53EC1B2BFFF739F841EC93
:101250001A0BFFF7E1F90C903846FFF7CAF941EC99
:101260001E0B9FED290B53EC102BFFF7D0F841EC30
:101270001C0B27480068FFF7BCF941EC1D0B53EC31
:101280001C2BFFF71DF841EC1B0B9FED220B53ECC1
:10129000102BFFF7BCF841EC1A0BFFF7BDF908EE75
:1012A000100A2846FFF7A5F941EC1B0B9FED1B0B1D
:1012B00053EC102BFFF7ABF841EC1A0BFFF7ACF92E
:1012C00008EE900A38EE280A114880ED000A5846C8
:1012D00028E0000000000000FCA9F1D24D6250405F
:1012E0000000000000806640EA2E4454FB210940C3
:1012F000E3A9471ADCA54C40000000000000D03FE5
:10130000000000000000E83FBA490C022B87863F2E
:10131000800000205C8FC2F5285CEF3F7B14AE4755
:10132000E17A943FFFF765F941EC1D0B1FED0A0BC5
:1013300053EC102BFFF76BF841EC1B0B3B4800689C
:10134000FFF757F941EC1C0B53EC1B2BFEF7B8FFD2
:1013500041EC1A0B1FED110B53EC102BFFF757F854
:1013600041EC1E0BFFF758F909EE100A5046FFF743
:1013700040F941EC1B0B1FED170B53EC102BFFF743
:1013800046F841EC1A0BFFF747F909EE900A39EEDF
:10139000290A264880ED000A3846FFF72AF941EC71
:1013A0001B0B2846FFF725F941EC1C0B1FED2A2BE0
:1013B000B0EE4B1AF0EE6B1AB0EE4C0AF0EE6C0A7F
:1013C00003F086F8B0EE40AAF0EE60AA51EC1A0BDA
:1013D000FFF722F903905846FFF70BF941EC1B0B7E
:1013E0005046FFF706F941EC1C0B1FED392BB0EE10
:1013F0004B1AF0EE6B1AB0EE4C0AF0EE6C0A03F0EA
:1014000067F8B0EE40AAF0EE60AA51EC1A0BFFF7B5
:1014100003F90290064890ED000A88ED000AC9F829
:1014200000700FB0BDEC108BBDE8F08F8400002081
:10143000800000202DE9FC4706460C4617469846DA
:10144000DDE90A9543463A4621463046CDE9009506
:1014500004F0D2FF2946204600F0ECFABDE8FC87F4
:1014600010B5012000F0A4F8002843D0012000F0BE
:1014700099F80121204800F022FA58B102211E48B3
:1014800000F01DFA012805D11C48C068401C1B490A
:10149000C8602FE00121184800F011FA58B9022164
:1014A000154800F00CFA012805D114488068401C4A
:1014B000124988601EE001210F4800F000FA50B187
:1014C00002210D4800F0FBF928B90C488068401C47
:1014D0000A4988600EE00021074800F0F0F948B1A1
:1014E0000221054800F0EBF920B90448C068401C0F
:1014F0000249C86010BD0000000002403801002011
:1015000010B5082000F054F8002845D0082000F05D
:1015100049F80821214800F0D2F901280BD1042113
:101520001E4800F0CCF9012805D11D484068401C38
:101530001B49486030E00821184800F0C0F958B94C
:101540000421164800F0BBF9012805D114480068B1
:10155000401C134908601FE00421104800F0AFF957
:1015600001280AD108210D4800F0A9F928B90C4832
:101570000068401C0A4908600EE00421074800F09A
:101580009EF948B90821054800F099F920B90448A6
:101590004068401C0249486010BD00000000024045
:1015A000380100200149086070470000143C0140E8
:1015B00001460020034A12680A400AB1012000E0F7
:1015C00000207047143C0140002123498279002A01
:1015D0003AD00A46126803689A430B461A600A1DFD
:1015E000126803689A430B1D1A60027911440A6855
:1015F00003681A430A60184A0832126803689A435B
:10160000154B08331A601A1D126803689A43124B6F
:101610000C331A604279102A0ED11A1F126803681F
:101620001A430D4B08331A601A1D126803681A43D7
:10163000094B0C331A600DE00749427911440A68DE
:1016400003681A430A6005E0027911440A680368D6
:101650009A430A6070470000003C014000B585B025
:101660000121084600F0E0FC0121880300F0FCFCA9
:1016700000208DF808008DF80B000120019001A9D1
:10168000124800F0B1F80021084600F071FD012079
:10169000039000208DF8100010208DF8110001201B
:1016A0008DF8120003A8FFF78FFF06208DF80000C9
:1016B0000F208DF801008DF8020001208DF8030045
:1016C000684600F07FFA05B000BD0000000002404F
:1016D00000B585B00121084600F0A6FC0121880371
:1016E00000F0C2FC00208DF808008DF80B000E20E1
:1016F000019001A9114800F077F80321002000F0C3
:1017000037FD0820039000208DF8100010208DF880
:10171000110001208DF8120003A8FFF755FF0920E2
:101720008DF8000001208DF801008DF802008DF881
:101730000300684600F046FA05B000BD0000024014
:1017400010B503220021012004F0F5FA1C490860BD
:1017500003220021012004F0EEFA1A49086001205A
:1017600004F0D8FA18490860012004F0D3FA1749A8
:101770000860012004F0CEFA15490860012004F049
:10178000C9FA1449086000222D21012004F0D3FA7F
:101790001149086000220821012004F0CCFA0F4909
:1017A000086000220121052004F0C5FA0C490860F8
:1017B00000220C21052004F0BEFA0A49086010BD81
:1017C00034000020380000202C00002030000020D1
:1017D0005800002054000020400000203C00002061
:1017E0004400002048000020F0B50A4600210023F4
:1017F000002400BF3DE0012505FA01F3156805EA64
:1018000003049C4234D105684F000326BE40B54313
:10181000056015794E00B5400668354305601579B9
:10182000012D02D01579022D16D185684F000326AF
:10183000BE40B543856055794E00B5408668354356
:101840008560456801268E40B543456045689679B8
:101850008E40B6B235434560C5684F000326BE4092
:10186000B543C560D5794E00B540C6683543C560FF
:10187000491C1029BFD3F0BDF0B5002300244D074B
:10188000ED0E02FA05F3CE1000F1200555F82650B2
:101890004E07F70E0F26BE40B543CF1000F12006CD
:1018A00046F82750CE1000F1200555F8265045EA9D
:1018B0000304CE1000F1200545F82640F0BD024695
:1018C000002013690B400BB1012000E0002070479D
:1018D000418370470183704742694A4042617047C3
:1018E0000AB1018300E04183704770B502460024CD
:1018F000002500230020958A138B1B0445EA03066C
:1019000026F07F4404EA01068E4201D1012000E066
:10191000002070BD2DE9FF4704460D460026B14664
:101920000427DFF8CC80A6884FF6C07006406846D2
:1019300000F0AAFBDDF808802E48B8FBF0F01FFA93
:1019400080F946EA0906A68020884FF6FE71084015
:10195000208000262849286888420CD82868400042
:10196000B8FBF0F087B2042F00DA04273E4309F1F8
:101970000100208427E0E8884BF6FF71884206D1F9
:10198000286800EB4000B8FBF0F087B209E0286857
:1019900000EBC00101EB0010B8FBF0F087B247F498
:1019A0008047C7F30B0008B947F0010747F4004030
:1019B00006434FF4967009FB00F04FF47A7190FBE8
:1019C000F1F0401C2084A683208840F00100208094
:1019D00026884FF6F5300640A888698908430643F3
:1019E0002680A889298908432081BDE8FF87000057
:1019F00000127A0040420F00A08601001CB50121B0
:101A0000082000F011FB4FF48060009001208DF859
:101A1000040002208DF8050069460548FFF7E4FE42
:101A200000224FF480610248FFF75AFF1CBD0000FE
:101A3000000C024010B5074A136D283242F82310FB
:101A4000283A136D126D521C024C2265224642F850
:101A5000230010BD6401002010B54FF40051094867
:101A6000FFF73AFF00231A461946074801F00CF920
:101A700030B94FF400510348FFF72EFF002010BD8E
:101A80000120FCE7000C0240480100201CB50121A8
:101A9000082000F0C9FA4FF40050009001208DF8A2
:101AA000040000208DF805008DF807008DF8060071
:101AB00069460248FFF798FE1CBD0000000C02407A
:101AC0001CB50121102000F0AFFA4FF4F040009057
:101AD00001208DF8040000208DF806008DF8070025
:101AE00003208DF8050069460448FFF77DFE4FF49A
:101AF000F0410248FFF7ECFE1CBD00000010024060
:101B00000EB557E000230A2269462B48006804F00E
:101B10003FF900284ED0BDF80800012809D1010383
:101B20002648FFF7D7FE4FF400612448FFF7D0FEA8
:101B300009E04FF400612148FFF7CCFE4FF48051DB
:101B40001E48FFF7C5FEBDF80A00012809D1410370
:101B50001A48FFF7BFFE4FF480411848FFF7B8FE60
:101B600009E04FF480411548FFF7B4FE4FF40051EF
:101B70001248FFF7ADFE0098FF2801DDFF2000901E
:101B80000198FF2801DDFF200190009901EB41023F
:101B900002EBC100012101F031FB019901EB41028F
:101BA00002EBC100022101F029FB4FF480610448DF
:101BB000FFF792FEA6E70000480000200010024058
:101BC000000C024070B5002100230F22C4781CB322
:101BD000174C246804F4E064C4F5E064C4F30721FE
:101BE000C1F10404E3B20A4144789C40E1B2847834
:101BF000144021430C07210E0E4C057861550478E2
:101C000004F01F050124AC4005786D11AD0005F10D
:101C1000E025C5F8004109E0047804F01F0501241F
:101C2000AC40054D0678761145F8264070BD0000A1
:101C30000CED00E000E400E080E100E010B50028D9
:101C400007DA0A07140E054A00F00F031B1FD454CD
:101C500003E00A07130E024A135410BD18ED00E00A
:101C600000E400E02DED108B86B09FED6E0AF0EEE3
:101C700040FA9FED6D0AF0EE40DA9FED6C0AB0EE8F
:101C800040EA9FED6B0A6B4880ED000A9FED6A0AFF
:101C900080ED020AB1EE0C0A80ED010AC0E00023DB
:101CA0000A2201A96548006804F072F80028F5D0FE
:101CB00000230A2219466248006804F069F80128E6
:101CC00037D1DDED01AA9DED02DA3FEEEAAA5948CF
:101CD00090ED000A60EE0AEA90ED020A20EE0DFA9D
:101CE000D0ED010AB0EE490A00EE8A0AB0EE409A41
:101CF000B4EEED9AF1EE10FA02DDB0EE6D9A06E068
:101D0000B4EECE9AF1EE10FA01D2B0EE4E9A002364
:101D10001A4619464A48006804F068F93EEE8F0AF0
:101D200030EE090AB0EE408AF0EE488AF0EE489AAA
:101D300000BF00230A2219464248006804F028F830
:101D400001282ED14048D0ED000A9FED371A80EED1
:101D5000810A38EE400AB0EE408A90ED010A38EE72
:101D6000400AF0EE408A90ED010A30EE080A10EECB
:101D7000101A0846FEF73DFC41EC1C0B9FED330B9F
:101D800053EC102BFEF743FB41EC1B0BFEF744FC1E
:101D900009EE900A00231A4619462A48006804F002
:101DA00025F9F5EEC08AF1EE10FA07D2B1EE680A15
:101DB000F0EE408A0020ADF8140002E00120ADF8FA
:101DC0001400F5EEC09AF1EE10FA07D20020ADF83B
:101DD0001600B1EE690AF0EE409A02E00120ADF87B
:101DE00016009FED1C0A28EE800ABDEEC00A10EE18
:101DF000100A4FF47A7190FBF1F003909FED150AF1
:101E000029EE800ABDEEC00A10EE100A90FBF1F038
:101E1000049000230A2203A90F48006804F0E6F8A2
:101E20003DE70000000000000000C8420000C8C2FA
:101E30000000A042B8010020CDCCCC3D3C000020E9
:101E400054000020300000202400002033333333BE
:101E50003333F33F00007A44480000202DED0C8B13
:101E6000B3EE040A544880ED000AB1EE000A80ED9A
:101E7000010A9FED520A80ED020A9FED500AF0EE32
:101E8000409A9FED4E0AB0EE40AA9FED4C0AF0EE4C
:101E900040AA9FED4A0AB0EE408A9FED480AB0EE94
:101EA00040DA642008EE900A404209EE100A00BFB2
:101EB00080E000234FF6FF7219464148006803F0A6
:101EC00067FF012876D13F4800683E494968401ABB
:101ED00000EE100AB8EEC00AF0EE409A3948C06829
:101EE00038498968401A00EE100AB8EEC00AB0EE10
:101EF00040AA00203349086048608860C86039EE15
:101F00008A0A10EE101A0846FEF773FB41EC1C0B10
:101F10009FED2D0B53EC102BFEF779FA41EC1B0BC8
:101F2000FEF77AFB0AEE900A294890ED000A3AEE95
:101F3000800A30EE080AB0EE408A39EECA0A30EE66
:101F40000D0AB0EE40DAB8EEE80AB4EEC08AF1EE5F
:101F500010FA04DDB8EEE80AB0EE408A0AE0B8EE06
:101F6000C90AB4EEC08AF1EE10FA03D2B8EEC90A7B
:101F7000B0EE408A00230A2219461648006803F092
:101F800007FF012816D10C4890ED000A20EE2A0A1E
:101F9000D0ED010A08EE200A0F4880ED000A39EE64
:101FA000CA0A80ED010A00231A461946094800684A
:101FB00004F01CF87DE70000C401002000000000D0
:101FC0003800002038010020000000000000E03F41
:101FD0005C000020300000202400002000B585B007
:101FE0007020ADF800000120ADF802000220ADF82D
:101FF0000C0040F28F10029069460A4800F03EFA49
:102000000821084800F078FA41F26700029069461A
:10201000044800F07BFA0821024800F0C9FA05B034
:1020200000BD00000008004029B1064A12680243C2
:10203000044B1A6004E0034A12688243014B1A60A1
:10204000704700003038024029B1064A1268024346
:10205000044B1A6004E0034A12688243014B1A6081
:10206000704700004038024029B1064A1268024316
:10207000044B1A6004E0034A12688243014B1A6061
:102080007047000044380240F0B5002100220024CF
:10209000022500260223324F3F6807F00C0121B1D0
:1020A000042905D0082937D105E02E4F076036E016
:1020B0002D4F076033E02A4F3F1F3F68C7F380561C
:1020C000274F3F1F3F6807F03F036EB1264FB7FB16
:1020D000F3F7DFF88CC0ACF1040CDCF800C0CCF3F3
:1020E000881C07FB0CF40CE01E4FB7FBF3F7DFF87E
:1020F00070C0ACF1040CDCF800C0CCF3881C07FB0A
:102100000CF4174F3F1F3F68C7F301477F1C7D004A
:10211000B4FBF5F7076002E0124F076000BF00BF95
:102120000F4F3F6807F0F0010909104F7A5C07680C
:10213000D74047600A4F3F6807F4E051890A0B4FC8
:102140007A5C4768D7408760054F3F6807F4604175
:10215000490B064F7A5C4768D740C760F0BD000066
:10216000083802400024F40000127A001400002015
:1021700030B500228B071C0F0F2303FA04F20B4B20
:102180008C1053F824309343084C8D1044F82530BC
:1021900023468C1053F824308C07240F00FA04F4E3
:1021A0002343024C8D1044F8253030BD08380140DF
:1021B0000CB50020019000903448006840F4803055
:1021C0003249086000BF3148006800F400300090D8
:1021D0000198401C0190009818B90198B0F5A04FE3
:1021E000F1D12A48006800F4003010B101200090BD
:1021F00001E0002000900098012846D1234840309B
:10220000006840F080502149403108602048006853
:1022100040F440401E4908601C48083000681B49D3
:10222000083108600846006840F40040086008462D
:10223000006840F4A05008601648091F0860081F95
:10224000006840F08070091F086000BF0F480068F8
:1022500000F000700028F9D040F205700E490860C7
:102260000A480830006820F0030008490831086077
:102270000846006840F00200086000BF03480830CC
:10228000006800F00C000828F8D10CBD00380240AE
:102290000070004008544007003C024010B500BFE9
:1022A000502080F31188BFF34F8FBFF36F8F00BFB3
:1022B00004F0E8F818B14FF080500449086000BFFE
:1022C000002080F3118800BF10BD000004ED00E085
:1022D00010B51548006840F47000134908601348B1
:1022E000006840F001001149086000200F490831E2
:1022F00008600E4800680E4908400C4908600D4807
:10230000091D0860081F006820F48020091F08606C
:10231000002006490C310860FFF74AFF4FF00060CB
:1023200001498039086010BD88ED00E000380240A6
:10233000FFFFF6FE1030002408B50121880700F0E9
:1023400082F818B30121880700F06EF81048006881
:1023500001281BD100200E49086000904FF48061D5
:102360000C48FFF7B9FA69460B48006803F08EFF86
:102370000098012809D1009838B14FF080500749E2
:102380000860BFF34F8FBFF36F8F00BF08BD000021
:102390004C000020000C02403400002004ED00E05E
:1023A00008B501210E4800F04EF8C0B101210C48DB
:1023B00000F03AF80020009069460A48006803F0EF
:1023C00065FF0098012809D1009838B14FF080507E
:1023D00005490860BFF34F8FBFF36F8F00BF08BD83
:1023E000000C00403800002004ED00E00EB5012193
:1023F0000420FFF729FE0020ADF80000ADF8020030
:1024000040F6EF2001900020ADF808008DF80A009A
:102410006946044800F0DAF80121024800F007F8A4
:102420000EBD000000080040CA430282704721B17F
:10243000028842F00102028004E002884FF6FE7337
:102440001A400280704730B5024600200023002465
:10245000158A05EA0103958905EA010413B10CB157
:10246000012000E0002030BD1AB183890B43838135
:1024700002E083898B4383817047000070B500249C
:1024800000220023058C4FF6FE7635400584028C31
:102490008388048B4FF68F752C40B51E2C400D8819
:1024A0002C43751E2A408D892A434D882A43104D9E
:1024B000A84202D00F4DA84213D14FF6F7752A401B
:1024C000CD892A434FF6FB752A408D882A434FF663
:1024D000FF652B404FF6FF552B400D8A2B434D8A4D
:1024E0002B43838004838D684563028470BD0000A4
:1024F00000000140000401400A460021018B4FF614
:10250000F7731940114301837047000070B5002430
:1025100000220023058C4FF6EF7635400584028CAF
:102520008388048B48F6FF752C404FF6FF452C40FE
:102530000D884FF6FF7606EA05252C434FF6DF752A
:102540002A408D8906EA05152A434D8806EA0515B5
:102550002A43154DA84202D0144DA8421DD14FF672
:102560007F752A40CD894FF6FF7606EA05152A4386
:102570004FF6BF752A408D8806EA05152A434FF6A7
:10258000FF352B404FF2FF752B400D8A06EA85057B
:102590002B434D8A06EA85052B43838004838D688F
:1025A0008563028470BD000000000140000401400A
:1025B0000A460021018B4FF2FF7319404FF6FF735B
:1025C00003EA0223194301837047000000220288B6
:1025D000184B98420ED0184B98420BD0B0F1804F58
:1025E00008D0164B984205D0154B984202D0154B97
:1025F000984204D14FF68F731A404B881A43124BFE
:10260000984207D0114B984204D04FF6FF431A402E
:102610000B891A4302804B68C3620B880385054B04
:10262000984202D0044B984201D18B7A0386012351
:102630008382704700000140000401400004004014
:1026400000080040000C0040001000400014004052
:1026500001464FF40030081AC0F38F207047000085
:1026600000B502461046FFF7F3FF012101FA00F022
:102670000249096808430149086000BD303802403A
:102680002DE9F04304460E461546DDE9078920464C
:10269000FFF7DEFFC7B2002243E001209040304048
:1026A00000B93CE0214830F817000121914008436F
:1026B0001E4921F81700E0684FEA420C032101FA95
:1026C0000CF18843510008FA01F10843E0602068EA
:1026D0004FEA420C032101FA0CF18843510005FA3C
:1026E00001F108432060012D01D0022D16D161684F
:1026F0000120904080B221EA000003FA02F189B281
:1027000008436060A0684FEA420C032101FA0CF113
:102710008843510009FA01F10843A06000BF501C32
:10272000C2B2102AB9DBBDE8F0830000482F0120B7
:102730002DE9FC4705460E4617469846DDE90A9AFC
:102740000EB9BDE8FC872846FFF78AFF00241AE08F
:102750000120A040304000B914E0E10805F120005C
:1027600050F821006107CA0E0F219140884361078C
:10277000C90E0AFA01F10843E20805F1200141F807
:10278000220000BF641C102CE2D33B4602223146DB
:102790002846CDE90089FFF773FF00BFD1E70000AD
:1027A0001CB504464CB9042001210B460A46CDE96C
:1027B0000010C0211148FFF7BBFF012C0AD10420F3
:1027C00001210B460A46CDE900104FF440710B4839
:1027D000FFF7AEFF022C0AD1042001210B460A4666
:1027E000CDE900104FF410710448FFF7A1FF032C4E
:1027F00003D10421024800F0F9F81CBD0004024096
:10280000005400401CB5044654B9042001210B4675
:102810000A46CDE900104FF440611148FFF788FFE8
:10282000012C09D1042001210B460A46CDE90010F4
:1028300003210C48FFF77CFF022C09D10420012161
:102840000B460A46CDE9001030210748FFF770FF1C
:10285000032C03D10421054800F0C8F81CBD00007A
:102860000004024000140240001C024000580040D6
:102870001CB504469CB9042001210B460A46CDE94B
:10288000001081011048FFF753FF042001210B467F
:102890000A46CDE90010C1010C48FFF749FF012CA1
:1028A0000AD1042001210B460A46CDE900104FF45D
:1028B000C0710748FFF73CFF032C03D104210548F2
:1028C00000F094F81CBD0000000002400008024027
:1028D000001C0240005C00407FB504460E461546D1
:1028E0003D48844221D13D48006840F400103B49F6
:1028F00008603046FFF754FF39480068A84201D904
:10290000374805603648006800904FF48040ADF8C5
:102910000C000020ADF80400ADF80800ADF80A0086
:102920004BF6FF70ADF8060048E02E48844221D1F6
:102930002A48006840F48000284908603046FFF7C4
:1029400061FF27484068A84201D9254845602448CE
:10295000406800904FF48040ADF80C000020ADF8C6
:102960000400ADF80800ADF80A004BF6FF70ADF8B2
:10297000060023E01C48844220D11848006840F437
:102980000000164908603046FFF772FF144880685F
:10299000A84201D9124885601148806800904FF420
:1029A0008040ADF80C000020ADF80400ADF8080040
:1029B000ADF80A004BF6FF70ADF80600208820F055
:1029C0000100208069462046FEF7A4FF208840F0E1
:1029D000010020807FBD00000054004040380240CC
:1029E0000001002000580040005C0040704770B5B6
:1029F00004460D460026012300222946204600F009
:102A00009BF800B90126204600F0EEF8304670BD74
:102A10002DE9F04105460E46144600231A4631467C
:102A2000284600F089F82146284600F017F9284684
:102A300000F0DAF8002301223146284600F07CF845
:102A4000284600F053F807463846BDE8F0810000FC
:102A500070B50446208840F48060208044F62060F1
:102A60000A49086007E009480068401E07490860F5
:102A700008B9012070BD06492046FEF736FF002840
:102A8000F1D0208AC5B22846F4E70000FC000020FF
:102A9000400003002DE9F0410746884615461C46D4
:102AA000069E012300224146384600F045F829469B
:102AB000384600F0D3F801231A464146384600F064
:102AC0003BF80BE02EB9384600F010F804F8010B83
:102AD00004E03846FFF7BCFF04F8010B3000A6F114
:102AE00001018EB2EED1BDE8F081000070B5044660
:102AF000208820F480602080208840F400702080AE
:102B000044F620600A49086007E009480068401E52
:102B10000749086008B9012070BD06492046FEF744
:102B2000E4FE0028F1D0208AC5B22846F4E7000070
:102B3000FC000020400003002DE9F04104460D4652
:102B400016461F46208840F48070208044F620609E
:102B50002349086008E022480068401E20490860B8
:102B600010B90120BDE8F081A08A00F00100002822
:102B7000F1D01FB1208840F480602080A6B925F0F4
:102B80000100208244F620601549086007E01448DF
:102B90000068401E1249086008B90120E2E7A08AD7
:102BA00000F002000028F2D0012E15D145F00100FE
:102BB000208244F620600A49086007E0084800685F
:102BC000401E0749086008B90120CBE705492046A7
:102BD000FEF78BFE0028F1D0208B0020C2E700001A
:102BE000FC00002002000300014644F620600D4A6C
:102BF000106007E00B480068401E0A4A106008B9E0
:102C000001207047888A00F080000028F2D0888A6E
:102C100000F004000028EDD0088840F4007008801F
:102C20000020EEE7FC0000202DE9F04106460F46AB
:102C300014461D4600231A4639463046FFF77CFFEE
:102C40002146304600F00AF82946304600F006F8E2
:102C50003046FFF7C9FFBDE8F081000044F620626E
:102C6000084B1A6004E0074A1268521E054B1A60AE
:102C7000828A02F080021AB9024A1268002AF2D14E
:102C800001827047FC0000202DE9F041044688468F
:102C900015461E4648F0D00020703E4A00213E48AE
:102CA000FFF71AFE21783C48FFF7A1FE10B901207A
:102CB000BDE8F081217875223748FFF7A9FE682822
:102CC00001D00220F4E7217800236B223248FFF77D
:102CD000ABFF21781C223048FFF79AFE074607F029
:102CE000E70040EAC500C7B221783B461C222A48CB
:102CF000FFF79AFF21781B222748FFF789FE074636
:102D000007F0E70040EAC600C7B221783B461B2225
:102D10002148FFF789FF35B1012D09D0022D0CD0D4
:102D2000032D14D10EE09FED1D0A84ED020A0FE081
:102D30009FED1B0A84ED020A0AE09FED1A0A84ED5A
:102D4000020A05E09FED180A84ED020A00BF00BFE9
:102D500000BF36B1012E09D0022E0CD0032E14D1A3
:102D60000EE09FED120A84ED010A0FE09FED100ABC
:102D700084ED010A0AE09FED0F0A84ED010A05E0E7
:102D80009FED0D0A84ED010A00BF00BF00BF0020C7
:102D90008EE70000801A0600005C004000008038CA
:102DA00000000039000080390000003A2D23FA3B72
:102DB0002D237A3C90C1F93C90C1793D10B52DEDA1
:102DC000028B86B004460E200090217802AB3B2295
:102DD0002648FFF75FFE9DF809009DF8081040EABD
:102DE000012000B2A0819DF80B009DF80A1040EA76
:102DF000012000B2E0819DF80D009DF80C1040EA22
:102E0000012000B220829DF80F009DF80E1040EACC
:102E1000012000B208EE100AB8EEC80ADFED140A6D
:102E200080EE201A9FED130A31EE000A84ED060AA7
:102E30009DF811009DF8101040EA012000B2608258
:102E40009DF813009DF8121040EA012000B2A08204
:102E50009DF815009DF8141040EA012000B2E082B0
:102E6000002006B0BDEC028B10BD0000005C0040ED
:102E70000000AA43B81E124204E003480068401C48
:102E800001490860F9E700007C0000201FB51C2004
:102E90008DF80C0000208DF80D0001208DF80E003B
:102EA0008DF80F0003A8FEF78DFE01210846FFF7FD
:102EB000CBF8272001904AF20F40ADF80000002027
:102EC000ADF80800ADF8020069464FF08040FFF70A
:102ED0007DFB012211469007FFF7C6FA0121880702
:102EE000FFF7A5FA1FBD00001FB532208DF80C00BA
:102EF00006208DF80D008DF80E0001208DF80F00D2
:102F000003A8FEF75FFE01210820FFF79DF8C82007
:102F100001904AF20F40ADF800000020ADF8080023
:102F2000ADF8020069460648FFF750FB0122114642
:102F30000348FFF799FA01210148FFF778FA1FBD0E
:102F4000000C00401CB501210820FFF76DF802229B
:102F50000C210D48FEF790FC02220D210A48FEF7D5
:102F60008BFC4FF44050009000208DF806008DF847
:102F7000070002208DF8040003208DF80500694643
:102F80000148FEF731FC1CBD000C024010B50020CA
:102F90001A49086040F22551194800F047F860B31B
:102FA00017488088C4B20A2C0DD0164800782D2806
:102FB00009DA154813490978445412480078401C2E
:102FC0001049087018E000200E49087000230B4AD1
:102FD0000D490E48006803F0DDF808480068012834
:102FE0000AD10648006838B14FF08050084908609F
:102FF000BFF34F8FBFF36F8F00BF10BD7400002071
:103000000010014078000020DC010020400000207A
:1030100004ED00E021B1828942F40052828104E093
:1030200082894DF6FF731A408281704770B502465F
:10303000002400230025002040F66A16B14200D18A
:1030400000BFC1F3421501F01F03012606FA03F386
:10305000012D02D19689334006E0022D02D1168A55
:10306000334001E0968A33400C12012606FA04F43C
:103070001688344013B10CB1012000E0002070BD6F
:10308000F0B50346002400260025002040F66A170C
:10309000B94200D100BF1846C1F3421401F01F0627
:1030A000012707FA06F5012C01D10C3004E0022CAF
:1030B00001D1103000E014301AB107682F430760C7
:1030C00002E00768AF430760F0BD00002DE9FF474D
:1030D00005460E460024A14600BFA046B08900B1B7
:1030E00000BF2C8A24F44054F08804432C82AC891D
:1030F00041F20C608443B0883189084371890843E8
:103100000443AC81AC8A24F44074B0890443AC829B
:103110006846FEF7B9FF2048854202D01F48854225
:1031200002D1DDF80C9001E0DDF80890A88900F4E8
:10313000004040B109EBC90000EB091031684900BB
:10314000B0FBF1F707E009EBC90000EB09103168AB
:103150008900B0FBF1F76420B7FBF0F0040120090F
:10316000642101FB1078A88900F4004040B13220AE
:1031700000EBC800B0FBF1F000F00700044308E0EA
:10318000322000EB08106421B0FBF1F000F00F00DA
:1031900004432C81BDE8FF8700100140001401406A
:1031A0000DE001200649086000230A22054906486F
:1031B000006802F0EDFD10B1024801F035F9F0E7CA
:1031C000500000200902002040000020C1F3080246
:1031D0008280704770B505460C460BE000BF28881A
:1031E00000F040000028FAD021782846FFF7EEFFD3
:1031F00014F8010B20780028F0D170BD012902D10C
:10320000034A106002E0024A121D1060704700007D
:10321000340800400EB5002450E00A2094FBF0F181
:1032200000FB11406946461800230A223146244813
:10323000006802F0ADFD002840D0641C00230A2283
:1032400019462048006802F0A3FD012836D1002568
:1032500025E01DF80500312806D032280AD0332891
:103260000ED0342818D111E017488068401C164948
:10327000886012E01448C068401C1349C8600CE024
:1032800011484068401C1049486006E00E4800683C
:10329000401C0D49086000E000BF00BF6D1C0A2003
:1032A00094FBF0F100FB1140A842D2DC0024002383
:1032B0001A4619460348006802F098FEADE7000080
:1032C0004400002030000020380100200FB41CB55D
:1032D0000A46521ECDE9000207A9054B6A46069828
:1032E00000F052FC009A002111701CBC5DF814FB28
:1032F000B742000803B401984100009850EAC12089
:1033000018BF04204A0D18BF40F0010040F2FF72C0
:10331000B2EB515F08BF40F00200012808BF052052
:1033200002B070470000000070B59B482DED020B05
:103330002DED068B079D25F00044A04218DC974830
:10334000844202DC0AD1069840B19DED060BBDEC2B
:10335000068B02B0BDE8704000F022BB002DCCBF50
:103360009FED8F0B9FED900BBDEC068B02B070BDF7
:103370008F48A04215DD8F48A042D8BF4FF0FF34E0
:1033800058DD9DED060B51EC100BFFF7B3FF042841
:1033900008BF00F019FB9DED060BBDEC068B02B0DB
:1033A00070BD9DED060B51EC100B01F085F8CDE9D9
:1033B000060181489FED828BA0423CDD8248A042FD
:1033C0001FDD00249FED82AB9DED060B53EC1A2B05
:1033D00051EC100BFCF774FF9DED060B41EC190B43
:1033E00053EC1A2B51EC100BFDF711F853EC182B82
:1033F000FDF707F853EC192BFDF77BF8CDE9060133
:1034000049E09DED060B012453EC182B51EC100BF9
:10341000FCF756FF9DED060B41EC190B53EC182BF6
:1034200051EC100BFCF7EDFF53EC192BFDF761F895
:10343000CDE906012FE06848A0421FDD02249FED80
:10344000689B9DED060B53EC192B51EC100BFCF710
:10345000DEFF53EC182BFCF733FF9DED060B41EC20
:10346000180B53EC192B51EC100BFCF7CAFF53EC63
:10347000182BFDF73EF8CDE906010CE09DED060B9B
:10348000032453EC102B9FED580B51EC100BFDF760
:1034900030F8CDE906019DED060B53EC102B51ECF5
:1034A000100BFCF7B4FF41EC180B53EC182BFCF796
:1034B000AEFF41EC190B4E480621B0EE490AF0EE82
:1034C000690A784400F0F0F953EC182B51EC100B1A
:1034D000FCF79DFF41EC180B4648B0EE490AF0EEB0
:1034E000690A0521784400F0DFF953EC192B51ECFF
:1034F000100BFCF78CFF41EC100B51EC180B53EC4C
:10350000102B002C0EDAFCF7DBFE9DED061B53ECB6
:10351000112BFCF77CFF9DED061B53EC112BFCF7E8
:1035200073FF35E0FCF7CCFE9DED061B53EC112B31
:10353000FCF76DFF41EC100B2F48784400EBC40002
:1035400090ED001B51EC100B53EC112BFCF759FFC5
:103550009DED061B53EC112BFCF753FF41EC100BB8
:103560002648784400EBC40090ED001B51EC100B92
:1035700053EC112BFCF748FF41EC100B002DA2BFC0
:10358000BDEC068B02B070BD51EC100B81F0004118
:1035900041EC100B01E70000000010440000F07F38
:1035A000182D4454FB21F93F182D4454FB21F9BF39
:1035B0000000DC3F0000203E0000F33F0000000060
:1035C000000000000000F03F0000E63F00000000A7
:1035D00000000000000000400080034000000000E8
:1035E000000000000000F83F000000000000F0BFF5
:1035F000B234000068340000F2330000AA33000047
:1036000070B56B4E2DED040B2DED028B82B0DDF805
:103610001CC0DDE905235C422CF000411C4341EA5B
:10362000D474049D22F00040B44205D86C422C436F
:1036300040EAD474B4420BD99DED061B9DED040BFA
:1036400002B0BDEC028B04B0BDE8704000F0B2B92E
:10365000ACF14054A4F17F641C430BD0022404EA73
:10366000AC7444EAD27405439FED538B9FED542B09
:1036700007D015E09DED040B51EC100B00F026FE79
:1036800042E0002C11BF012C9DED040B02B0BDECFB
:10369000028B04BF04B070BD022C38D0032C3BD089
:1036A0000B439FED491B9FED4A0B0AD0B14218D145
:1036B000B04209D121F0804120F08040079105906F
:1036C0000FE0002A15DA10E0434B7B44002C08BFC2
:1036D00093ED000B0DD0012C10D0022C17D0032C31
:1036E0001AD0B0421DD1002A03DAB0EE410AF0EE42
:1036F000610A02B0BDEC028B04B070BD93ED000B0B
:1037000051EC100B81F0004141EC100BF1E7B0EEF1
:10371000480AF0EE680AECE7B0EE420AF0EE620A00
:10372000E7E7401A00153C28C8BF8DED000B19DCF7
:10373000BCF1000FBEBF10F13C0F9FED290B8DEDCA
:10374000000B0FDB9DED060B53EC102B9DED040BD6
:1037500051EC100BFCF7CDFE00F0AEFE00F0B6FD14
:10376000CDE90001002C08BF9DED000BC1D0012C5C
:1037700010D0022C9FED1C0B53EC102B9DED000B79
:1037800051EC100B0DD0FCF73CFE53EC182BFCF762
:1037900038FEB9E7019880F0004001909DED000BE4
:1037A000A7E7FCF72EFE53EC182BFCF72DFEABE73A
:1037B0000000F07F00000000182D4454FB21094058
:1037C000182D4454FB2109C0182D4454FB21F9BF86
:1037D000182D4454FB21F93FDA32000000000000AC
:1037E0000000000000000000075C143326A6A13C86
:1037F00000B52DED048BB0EE409AF0EE609A83B0E8
:1038000051EC190BFDF76EF841EC180B18EE100A8D
:1038100018EE901A8DED008B002818BF0120084388
:1038200020F00040C0F17F6000F1E040C00F14D0F4
:1038300019EE101A19EE900A8DED009B002918BFA1
:103840000121084320F00040C0F17F6000F1E0401A
:10385000C00F04BF012000F0D7F8B0EE480A03B053
:10386000F0EE680ABDEC048B00BD00000000000013
:1038700000B583B09FED0A0B0A4601468DED000BA3
:103880006846FCF768FF9DED000B51EC100BFCF750
:10389000C3FE03B000EE100A00BD000000000000EF
:1038A000000000000000000070B504462DED028B02
:1038B0004D1E00EBC500B0EE408AF0EE608A90ED40
:1038C000000B35F0060017D053EC182B51EC100B01
:1038D000FCF79DFD41EC100B6D1E04EBC50090ED57
:1038E000001B51EC100B53EC112BFCF7E9FC41ECE5
:1038F000100B35F00600E7D1022D36D0042D1CD078
:10390000062D1CBFBDEC028B70BD53EC182B51EC87
:10391000100BFCF77CFD94ED0A1B53EC112BFCF70C
:10392000CFFC53EC182BFCF772FD94ED081B53EC05
:10393000112BFCF7C5FC41EC100B53EC182B51EC90
:10394000100BFCF764FD94ED061B53EC112BFCF7F8
:10395000B7FC53EC182BFCF75AFD94ED040B53EC19
:10396000102BFCF7ADFC41EC100B53EC182B51EC79
:10397000100BFCF74CFD94ED021B53EC112BFCF7E4
:103980009FFC53EC182BFCF742FD94ED001B53EC0D
:10399000112BFCF795FCBDEC028B41EC100B70BDBC
:1039A00010B553EC102B51EC100BFCF789FC41ECDB
:1039B000100B10BD10B553EC112B51EC100BFCF794
:1039C0007FFC41EC100B10BD9FED050B10B553ECC7
:1039D000102B51EC100BFCF71AFD41EC100B10BD35
:1039E000000000000000001002E008C8121F08C11B
:1039F000002AFAD170477047002001E001C1121F70
:103A0000002AFBD1704700000149086070470000A0
:103A1000340100202DE9FF5FDDE90220010DDDF812
:103A200038B0024318D044F61050A1F2FF314143A0
:103A30000D140F98012820D0A5EB0B00401C5FEA65
:103A4000000A4FF00004474EDFF81C91A046504694
:103A500016D5CAF1000728E00F98012443A20128D7
:103A600008D0002100980F9BC0E90021C0E9024363
:103A7000BDE8FF9F6FEA0B01F4E7CBF10000DEE742
:103A8000074612E0F80707D022463346404649462B
:103A9000FCF7BDFC8046894622463346104619464F
:103AA000FCF7B5FC04460E467F10002FEAD1DDE995
:103AB0000201BAF1000F42464B4602DAFCF7A7FCBE
:103AC00001E0FCF716FD04460E460022284BFCF7E9
:103AD00073FF03D84FF0FF30014607E00022254B6B
:103AE00020463146FCF7ECFBFCF74DFF102409E0C3
:103AF000002C0ADB0A220023FCF7C0FD019B3032B8
:103B00001A55641E50EA0102F2D1641C019AC4F1F4
:103B1000110314440F9A012A03D0012208430DD146
:103B20000AE0084304D000204FF0110B0F9080E70B
:103B3000A3EB0B056D1E0DE05B4504DD4FF00002AD
:103B400005F1010504E003DA4FF00002A5F10105DB
:103B5000002AECD000980F99C0E90231C0E9004575
:103B600086E70000000024400000F03F3000000025
:103B70000000F0430000E03F30380A2801D2012065
:103B800070470020704700002DE9FF4F95B09B461D
:103B90008946064600250FE2252877D100242746CE
:103BA000F84A0121059400E0044316F8013F203B48
:103BB00001FA03F01042F7D130782A2811D06FF0C3
:103BC0002F033078A0F13002092A16D8059A44F064
:103BD000020402EB820203EB42021044761C0590C1
:103BE000EFE759F8042B0592002A03DA504244F417
:103BF0000054059044F00204761C30782E2816D12B
:103C000016F8010F44F004042A280DD06FF02F029B
:103C10003078A0F13003092B09D807EB870302EBBA
:103C20004303C718761CF3E759F8047B761C3078F9
:103C30006C280FD006DC4C2817D068280DD06A28D5
:103C400014D104E0742810D07A280FD10DE044F488
:103C500000140AE044F4801401E044F44014727843
:103C6000824202D104F58014761C761C30786628D6
:103C70000BD013DC582877D009DC002875D04528F4
:103C8000F6D04628F4D047281AD19DE118E06328E1
:103C900035D0642879D0652812D195E1702873D089
:103CA00008DC6728F1D069286FD06E280DD06F2806
:103CB00006D1B5E073282CD0752875D0782874D03B
:103CC0005A46179990476D1C75E1C4F302500228BB
:103CD00009D003280DD0D9F8001004280DD00D60AC
:103CE00009F1040967E1D9F80010EA17C1E90052A7
:103CF000F6E7D9F800100D80F2E70D70F0E719F83B
:103D0000041B8DF8001000208DF80100EA46012008
:103D100003E059F804AB4FF0FF3061074FF00001AA
:103D200002D40DE008F101018846B9420FDA80455E
:103D3000F8DB1AF808100029F4D108E008F10101B5
:103D400088468142FADB1AF808100029F6D1059856
:103D50005B46A0EB080721463846179A00F094FA14
:103D6000284400EB080507E04DE029E10DE01AF8D2
:103D7000010B5A4617999047B8F10108F7D25B46F4
:103D800021463846179A13E142E00A220092C4F312
:103D900002524FF0000A022A08D059F804CB032A35
:103DA0004FEAEC710AD00DE029E02AE009F10701A1
:103DB00021F00702F2E802C1914609E00FFA8CFCFB
:103DC0004FEAEC71042A03D14FFA8CFC4FEAEC71F4
:103DD000002907DA0A460021DCF1000C61EB020140
:103DE0002D2202E0220504D52B228DF80420012289
:103DF00003E0E20701D02022F7E7904659E00A21CC
:103E000002E010220DE010214FF0000A00910BE0BB
:103E100010224FF0000A44F004040827009203E047
:103E200008224FF0000A0092C4F30252022A05D081
:103E300059F804CB0021032A08D009E009F1070151
:103E400021F00702F2E802C1914605E01FFA8CFC5E
:103E5000042A01D10CF0FF0C4FF00008220728D5EE
:103E6000702806D0009B83F0100353EA0A0305D0A4
:103E70000EE040228DF80420012208E05CEA0102F5
:103E800006D030228DF804208DF8050002229046DD
:103E9000009B83F0080353EA0A030AD15CEA01029B
:103EA00001D1620705D530228DF804204FF00108BA
:103EB0007F1E582804D034A003900EA802900DE075
:103EC00036A0F9E753466046009AFCF7D7FB8446D4
:103ED0000398825C0298401E029002705CEA010026
:103EE000F0D1029806A9081A00F1200A600702D54D
:103EF00024F4803400E00127574502DDA7EB0A00D7
:103F000000E0002000EB0A01009005984144401AAF
:103F10000590E00306D45B462146179A059800F009
:103F2000B3F90544002706E001A85A46C05D179979
:103F300090476D1C7F1C4745F6DBE0030CD55B46C4
:103F40002146179A059800F09FF9054404E03020B7
:103F50005A46179990476D1C0099481E00900029F9
:103F6000F5DC08E0029802995A460078491C029153
:103F7000179990476D1CBAF10001AAF1010AF1DC12
:103F800065E100000928010030313233343536371D
:103F90003839616263646566000000003031323395
:103FA0003435363738394142434445460000000035
:103FB00000F058F90544761C307800287FF4ECAD09
:103FC00019B02846BDE8F08F620700D4062709F132
:103FD000070222F0070CFCE80223E14603F0004848
:103FE0005FEA080C02D00FF2702C0DE05FEA045C6F
:103FF00002D50FF2682C07E05FEAC47C02D00FF212
:10400000602C01E0AFF2700C4FF0FF3823F000435A
:10401000CDF850C065280CD006DC452809D04628CC
:104020001DD047283DD13DE0662818D067287ED1B5
:1040300038E00021112F01DB112000E0781CCDE9D0
:10404000000106A90EA8FFF7E5FCDDE90F010E9AB5
:1040500003910021009207F1010A04914DE04FF015
:1040600000400097CDE9011006A90EA8FFF7D2FC89
:10407000DDE90F0203920E9B11990022DDF80CA0DE
:104080000093049211B9791C00EB010AB7EB0A0006
:1040900004D4C0F1FF3007F1010A0490AAEB070035
:1040A000019044E0012F00DA01270021112F01DDEA
:1040B000112000E03846CDE9000106A90EA8FFF75F
:1040C000A9FCDDE90F010E9A0391002104910092F1
:1040D000BA4621070CD40399514500DA8A46BAF151
:1040E000010F05DD009AAAF10101515C302908D0C9
:1040F000B84202DA10F1040F06DA0121CDE901100D
:1041000015E0AAF10101E9E7002805DC0499014462
:104110000491AAEB000102E0411C514500DD8A46F2
:104120000499401A401C01904FF000400290200773
:1041300004D40198504501DBCDF8048000208DF8AF
:104140004F0002980DF14F07B0F1004F25D02B2002
:104150000E9002984FF0020800280CDA40420290BC
:104160002D200E9007E00A210298FCF771FA3031F9
:10417000029007F8011DB8F10001A8F10108F2DC76
:1041800002980028EFD1791E0E980870307800F060
:10419000200040F0450007F8020D12A8C01B00F1F6
:1041A00007081498007800B1012000EB0A0101987B
:1041B00001EBE07105984144401A401E0590E00370
:1041C00006D45B462146179A059800F05DF8054431
:1041D0001498007818B15A46179990476D1CE0035F
:1041E00024D55B462146179A059800F04DF8054402
:1041F0001CE00498002807DBDDE90301884203DDA9
:104200000098405C179901E0179930205A46904772
:10421000049805F10105401C04900198401E01908E
:1042200004D12E205A46179990476D1CBAF100010F
:10423000AAF1010ADDDC05E017F8010B5A461799CF
:1042400090476D1CB8F10001A8F10108F4DC5B4651
:104250002146179A0598ABE62D0000002B000000C0
:10426000200000002DE9F041044600251E461746B7
:10427000880404D405E039462020B0476D1C641E34
:10428000F9D52846BDE8F0812DE9F0410446002526
:104290001E469046C80301D5302700E02027880439
:1042A00004D505E041463846B0476D1C641EF9D57B
:1042B0002846BDE8F0814A68002A06D00A68531CE7
:1042C0000B6010704868401E4860704710B541ECA4
:1042D000100BFFF729F851EC100B10BD7CB504460C
:1042E000651C00212846FFF7C3FA8DED010A2078EE
:1042F0008DF800009DF800003138062872D2DFE802
:1043000000F003192F455B7200230A221946424828
:10431000006801F03DFD01280BD19DED010A3F48E9
:1043200080ED000A00231A4619463B48006801F058
:104330005DFE6FE000230A2219463748006801F04D
:1043400027FD01280BD19DED010A344880ED020ABA
:1043500000231A4619463048006801F047FE59E02C
:1043600000230A2219462C48006801F011FD01289B
:104370000BD19DED010A294880ED010A00231A4660
:1043800019462548006801F031FE43E000230A2267
:1043900019462348006801F0FBFC01280BD19DED74
:1043A000010A204880ED000A00231A4619461C48DD
:1043B000006801F01BFE2DE000230A221946184870
:1043C000006801F0E5FC01280BD19DED010A1548BC
:1043D00080ED020A00231A4619461148006801F0D0
:1043E00005FE17E015E000230A2219460C48006874
:1043F00001F0CEFC01280BD19DED010A094880EDAA
:10440000010A00231A4619460548006801F0EEFD2E
:1044100000E000BF00BF7CBD54000020B8010020B8
:1044200058000020C40100207CB504460125002668
:104430002078302816D10FE0605D2D2804D0605D13
:104440000DF80600761C06E020200DF806006846F0
:10445000FFF744FF00266D1C605D2B28ECD100F0B7
:10446000FBFF28E02078702802D100F0F5FF22E061
:104470002078722816D004DC64280FD06C2819D15B
:1044800014E0732802D0752814D103E0002001F055
:10449000E9F800BF012001F0E5F800BF022001F0BB
:1044A000E1F800BF032001F0DDF800BF042001F0B7
:1044B000D9F800BF00BF7CBD82B0CDE9000121F07A
:1044C000004001909DED000B02B051EC100B7047C5
:1044D00000B52DED108B8DB0B0EE409AF0EE609AE5
:1044E000B0EE41AAF0EE61AAB0EE428AF0EE628A26
:1044F000C1480068FCF77DF841EC1C0B53EC1A2B0B
:10450000FBF782FF41EC1B0BFCF786F8BB49086008
:1045100008460068FCF76DF841EC1E0B53EC182BB5
:10452000FBF775FF41EC1C0BB5480068FCF761F820
:1045300041EC1D0B53EC1C2BFBF7C2FE41EC1B0B9B
:10454000FCF76AF8AE490860AE480068FCF751F81D
:1045500041EC1E0BAC4890ED020A10EE101A084612
:10456000FCF747F8CDE90601A74890ED010A10EEE7
:10457000101A0846FCF73DF8CDE90201A24890ED7B
:10458000030A10EE101A0846FCF733F853EC182B08
:10459000CDE900019DED000B51EC100BFBF737FF4F
:1045A00041EC1F0B9DED020B53EC102BFBF729FF89
:1045B000CDE904019DED060B53EC102B9DED040B92
:1045C00051EC100BFBF71DFF53EC1E2BCDE908013E
:1045D0009DED080B51EC100BFBF772FE41EC1D0B2F
:1045E00053EC182BFBF713FF41EC1B0B864890EDA7
:1045F000000A10EE101A0846FBF7FBFF41EC1C0BFB
:1046000053EC1B2BFBF75CFECDE90A019DED0A0B79
:1046100051EC100BFCF700F87B490860084690ED60
:10462000030A10EE101A0846FBF7E3FF41EC1E0BDD
:1046300053EC182BFBF7EBFE41EC1C0B724890ED92
:10464000010A10EE101A0846FBF7D3FF41EC1D0BD0
:1046500053EC1C2BFBF7D5FE41EC1B0BFBF7DCFFEF
:1046600069494860084690ED030A10EE101A0846A2
:10467000FBF7BFFF41EC1E0B53EC182BFBF7C7FEFB
:1046800041EC1C0B604890ED020A10EE101A08462F
:10469000FBF7AFFF41EC1D0B53EC1C2BFBF7B1FEFE
:1046A00041EC1B0BFBF7B8FF57498860574800687F
:1046B000FBF79FFF41EC1E0B53EC182BFBF7A7FEFB
:1046C00041EC1C0B504890ED030A10EE101A0846FE
:1046D000FBF78FFF41EC1D0B53EC1C2BFBF7F0FDA0
:1046E00041EC1B0BFBF798FF4749C860084690ED6B
:1046F000000A4748D0ED000A30EE200A454880ED18
:10470000000A084690ED000A4248D0ED000A80EE0B
:10471000201A414880ED001A084690ED020A3D48F3
:10472000D0ED000A80EE201A3B4880ED011A344893
:104730000068FBF75EFF41EC1C0B53EC192BFBF7F9
:1047400063FE41EC1B0BFBF767FF344908603248FE
:10475000D0ED000A084690ED001A294890ED000AB5
:1047600000EE810A80ED000A2B48D0ED010A0846D0
:1047700090ED001A204890ED000A00EE810A80EDCD
:10478000000A214890ED000A2348D0ED000A1E4897
:1047900090ED001A00EEC10A80ED000A90ED010ACA
:1047A0001D48D0ED000A184890ED011A00EEC10A2C
:1047B00080ED010A90ED020A1748D0ED010A124877
:1047C00090ED001A00EEC10A80ED020A90ED030A96
:1047D0001148D0ED010A0C4890ED011A00EEC10A13
:1047E00080ED030A06480068FBF703FF41EC100B5D
:1047F0000DB0BDEC108B00BD1C010020200100207D
:10480000180100200C010020602F01201001002061
:104810001401002030010020240100202C01002080
:1048200010B588B0044601211020FDF71DFC0121C0
:104830000220FDF7F9FBC020069002208DF81C0035
:104840008DF81D0000208DF81E0001208DF81F003E
:1048500006A91C48FCF7C8FF072206211948FDF7E6
:104860000BF8072211461748FDF706F802940020BE
:10487000ADF80C00ADF80E00ADF81000ADF8140066
:104880000C20ADF8120002A90F48FEF71FFC012210
:1048900040F225510C48FEF7F3FB25208DF804006B
:1048A0000A208DF8050000208DF8060001208DF803
:1048B000070001A8FDF786F901210348FEF7AAFBCE
:1048C00008B010BD00040240001001401CB5FDF707
:1048D000FFFCFDF793F8FEF7D9FAFCF7BFFEFCF7F3
:1048E000F7FEFDF7D3F800BFFDF7B6F80028FBD1BF
:1048F000FCF726FFFEF726FBFDF778FDFDF76EFBC4
:10490000FDF7DEF8FEF7F0FA4FF41650FFF788FFD8
:1049100000202C4908651D20012380222AA1CDE911
:1049200000042E48FCF786FD0A20022380222CA1D9
:10493000CDE900042E48FCF77DFD0B2003238022E7
:104940002CA1CDE900042F48FCF774FD0A200423B4
:1049500080222DA1CDE900043048FCF76BFD022038
:10496000052332222EA1CDE900043248FCF762FD76
:1049700006200346802230A1CDE900043348FCF72D
:1049800059FD00200723082231A1CDE90004334856
:10499000FCF750FD09210620FDF750F909210846D2
:1049A000FDF74CF906211C20FDF748F905213220BE
:1049B000FDF744F906212520FDF740F901F074F8D0
:1049C00000201CBD6401002042616C616E63696E51
:1049D000675049445461736B00000000651C000877
:1049E00044697374616E63655049445461736B002C
:1049F0005D1E00084163717569736974696F6E5457
:104A000061736B00490E00084D6F746F72436F6ED7
:104A100074726F6C65725461736B0000011B000847
:104A2000557064617465456E636F6465725461733B
:104A30006B00000015320008555341525452656313
:104A4000656976655461736B00000000A131000850
:104A5000546573745461736B00000000792E000874
:104A60002DE9F04105460E461C4807681C480068C1
:104A7000001D00F02DFE50B91948006890F82C1068
:104A80000120884017490968814316480160681C65
:104A900038B936B112480168091D134800F056FEB6
:104AA0001AE07C190E4800684460BC4207D20C48EA
:104AB0000168091D0D48006800F02EFE0CE0084852
:104AC0000168091D0A48006800F026FE09480068D0
:104AD000844201D207480460BDE8F0819C000020B8
:104AE00088000020A00000200C030020900000207F
:104AF0008C000020B800002010B5044600F032FE03
:104B000024480068401C234908602348006840B9D5
:104B1000214804600846006801280DD100F0CAF958
:104B20000AE01E48006838B91B480068C06AE16A9C
:104B3000884201D81848046019480068401C184988
:104B4000086008460068206494F82C100120884012
:104B500014490968084313490860E16A01EB8101BF
:104B6000114A02EB8100211D00F0F0FD00F024FE4F
:104B70000A48006868B108480068C06AE16A88426B
:104B800007D24FF0805009490860BFF34F8FBFF341
:104B90006F8F10BD9800002088000020A400002026
:104BA000B4000020A00000205802002004ED00E026
:104BB00010B500F0D7FD10480068D0B90F4800F0DC
:104BC0009BFD0F4800F098FD0C480E4908600C480A
:104BD0000D49086000220C210A2001F0ACF80649BA
:104BE00008600846006820B108A10348006800F08A
:104BF0006DFE00F0E1FD10BDCC0000202003002080
:104C000034030020C4000020C8000020546D7251FD
:104C10000000000070B523E000F090FF134800682A
:104C200008B9012000E00020054601F07FFDBDB974
:104C300000F098FD0D48C068C468201D00F048FDD4
:104C40000B480068401E0A4908600A480068401E78
:104C50000849086000F0B0FD204600F060F800BF91
:104C6000044800680028D7D170BD0000F802002079
:104C7000980000209400002070B504460D46206C7A
:104C800070B1216CE0680844E0606168E0688842C7
:104C900001D32068E0602846226CE168FBF7ECFA5B
:104CA00070BD2DE9F04104460F4615464FF000084F
:104CB000A66B206C40B9206860BB606801F086FC80
:104CC00080460020606025E07DB93946226CA068EE
:104CD000FBF7D2FA216CA0680844A060D4E9011067
:104CE000884217D32068A06014E03946226CE0683F
:104CF000FBF7C2FA216CE068401AE0602168E068C6
:104D0000884203D2216C6068401AE060022D01D114
:104D100006B1761E701CA0634046BDE8F08110B558
:104D20000446206B00F066FD204600F063FD10BDD8
:104D30000146084A126812680AB9012200E00022FE
:104D40000A600A6822B9034A1268D268106800E053
:104D500000207047C4000020094A22F00700094AD9
:104D600010600022074B5A60074A084B5A60002225
:104D70001A600146044A4A601A460A6070470000F9
:104D800050030020E4000020F82B0100EC0000207C
:104D900000BFFFF73FFF064800680128F9D94FF030
:104DA000805004490860BFF34F8FBFF36F8FF0E767
:104DB0005802002004ED00E010B504464CB100207C
:104DC00060602060E06000231A461946204601F02A
:104DD0000DF910BD2DE9F04106460D4617469846DF
:104DE000069C0DB9246000E02760E663256401217C
:104DF000204601F0AFF884F84C80BDE8F0812DE941
:104E0000F05F82460F4690469B460A9E0C9C4FEAF6
:104E10008801A522206BFBF741FAA8F10100216B64
:104E200001EB800929F0070909F0070008B9012002
:104E300000E0002050B900BF502080F31188BFF37C
:104E40004F8FBFF36F8F00BF00BFFEE7002507E065
:104E5000795D04F134004155785D00B902E06D1CC4
:104E60000A2DF5D300BF00213D200155052E00D3AA
:104E70000426E662A6640020E064201D00F049FCE0
:104E800004F1180000F045FC2461C6F10500A061A2
:104E900064620020206584F854005A465146484612
:104EA00000F0C4FA20600B9808B10B980460BDE8CC
:104EB000F09F000010B5002407E004EB84010F4AC6
:104EC00002EB810000F018FC641C052CF5D30C48A3
:104ED00000F012FC0B4800F00FFC0B4800F00CFC3B
:104EE0000A4800F009FC0A4800F006FC0448094999
:104EF000086004480849086010BD000058020020FE
:104F0000BC020020D0020020E4020020F8020020B1
:104F10000C0300208C000020900000202DE9F041BF
:104F200004460D4616461F464FF000086560246192
:104F3000B5420CD8F01BA169884202D34FF001089A
:104F400011E0211D0948006800F0E6FB0BE0BE42BD
:104F500004D2BD4202D34FF0010804E0211D0448F1
:104F6000006800F0D9FB4046BDE8F081C800002091
:104F7000C400002070B5054600F0F4FBA86B08B92A
:104F8000012400E0002400F017FC204670BD70B53D
:104F9000054600F0E7FBA86BE96B884201D10124CC
:104FA00000E0002400F008FC204670BDF8B505467E
:104FB0000F4616480068C068C468201D00F088FBD2
:104FC000E06901281DD1A06941192B463A462046C7
:104FD000FFF7A4FFA8B1002003462A46014600902F
:104FE000204601F051FC064656B900BF502080F320
:104FF0001188BFF34F8FBFF36F8F00BF00BFFEE775
:1050000000BF2046616A8847F8BD0000C400002048
:1050100070B586B06AE00398002867DB059C60697C
:1050200008B9012000E0002010B9201D00F050FB5D
:1050300002A800F0BDF8054603980A2854D2DFE81C
:1050400000F009050731334F0608323400BF00BFB6
:1050500000BF00BF0498A269811803462A46204673
:10506000FFF75CFFE8B12046616A8847E0690128E4
:1050700017D1002000900498A16942180023194616
:10508000204601F001FC064656B900BF502080F3CF
:105090001188BFF34F8FBFF36F8F00BF00BFFEE7D4
:1050A00000BF22E000BF20E000BF0498A061A0691B
:1050B00008B1012000E0002050B900BF502080F36B
:1050C0001188BFF34F8FBFF36F8F00BF00BFFEE7A4
:1050D000A06941192B462A462046FFF71FFF04E02E
:1050E000204600F087FB00E000BF00BF00231A4607
:1050F00003A90448006800F04BFE00288BD106B0DD
:1051000070BD0000CC000020F8B505460C4600F04C
:1051100015FD684600F04CF80646009820BB44B9DF
:10512000B54206D801F002FB31462846FFF73EFFA4
:105130001CE03CB10E480068006808B9012000E09E
:1051400000200446A91B22460A48006800F0D4FB50
:1051500001F0ECFA50B94FF0805007490860BFF3F6
:105160004F8FBFF36F8F01E001F0E0FAF8BD000050
:10517000C8000020CC00002004ED00E00A490968C6
:10518000096809B9012100E0002121B14FF0FF3188
:10519000064A116006E004490968C968C868034AFC
:1051A00041681160704700008C000020B8000020AA
:1051B00070B5044601F060F905460748006885426D
:1051C00004D200F00BF80120206001E000202060F4
:1051D00001480560284670BDD40000202DE9F84341
:1051E00032E024480068C068056822480068C0684A
:1051F000C468201D00F06CFA2046616A8847E069A7
:10520000012821D1A0694619AE4207D96660246100
:10521000211D1848006800F07FFA15E000200346C1
:105220002A4601460090204601F02EFB074657B95A
:1052300000BF502080F31188BFF34F8FBFF36F8FF3
:1052400000BF00BFFEE700BF0A480068006808B959
:10525000012000E000200028C3D00648D0F80080DC
:1052600005480068034908600348C0F80080BDE8AD
:10527000F8830000C4000020C80000200E48006829
:10528000401C08B9012000E0002050B900BF5020A8
:1052900080F31188BFF34F8FBFF36F8F00BF00BF44
:1052A000FEE700BF502080F31188BFF34F8FBFF39C
:1052B0006F8F00BF00BFFEE7D800002008B500BF19
:1052C0006846FFF735FD044620460099FFF71CFFAE
:1052D000FFF79EFEF4E770B5044600F043FA94F938
:1052E000455010E0606A08B9012000E0002038B99C
:1052F00004F1240001F0CEF918B100F023FB00E026
:1053000003E0681E45B2002DECDC00BFFF2084F8EE
:10531000450000F051FA00F025FA94F9445010E0ED
:10532000206908B9012000E0002048B904F110000C
:1053300001F0B0F908B100F005FB681E45B200E0CD
:1053400001E0002DECDC00BFFF2084F8440000F0F9
:1053500033FA70BD2DE9F04104464FF0000800F02B
:10536000EDFB2548006820B9FFF7F6FC0120224933
:10537000086044B1083404F0070020B104F00700CD
:10538000C0F108000444002C31D01C4884422ED2C5
:105390001B4F3846056801E02F462D686868A0421B
:1053A00002D228680028F7D1164885421FD03868F5
:1053B00000F10808286838606868001B102810D9B8
:1053C0002E196868001B70606C6071680C4800E002
:1053D0000068026852688A42FAD302683260066046
:1053E00000BF094968680968081A0749086001F0A0
:1053F0009DF94046BDE8F081F8000020F82B01003F
:10540000E4000020EC000020F400002006480068C2
:1054100030B10549096801F14C00C96C491C0160B3
:10542000014800687047000088000020001F4FF00E
:1054300080730360001F21F001030360001F054B10
:10544000036014380260001F6FF00203036020380D
:10545000704700007D52000810B52DED028B86B01C
:1054600000230A2219466E48006800F091FC0128CA
:1054700018D16C48046800231A4619466848006829
:1054800000F0B4FD2046FBF7B4F841EC180B8DEDAD
:10549000008B65A20A2102A8FDF718FF02A9644843
:1054A000FDF798FE00230A2219465D48006800F0C7
:1054B0006FFC01281BD15B4890ED020A10EE104AE8
:1054C0002046FBF796F841EC180B8DED008B59A2A6
:1054D0000A2102A8FDF7FAFE02A95548FDF77AFE57
:1054E00000231A4619464E48006800F07FFD00234D
:1054F0000A2219464A48006800F04AFC01281BD1DC
:10550000484890ED010A10EE104A2046FBF771F86A
:1055100041EC180B8DED008B48A20A2102A8FDF783
:10552000D5FE02A94248FDF755FE00231A4619464A
:105530003B48006800F05AFD00230A221946414802
:10554000006800F025FC01281BD13F4890ED000ABF
:1055500010EE104A2046FBF74CF841EC180B8DED8D
:10556000008B3AA20A2102A8FDF7B0FE02A930483A
:10557000FDF730FE00231A4619463248006800F055
:1055800035FD00230A2219462E48006800F000FC71
:1055900001281BD12C4890ED020A10EE104A20463B
:1055A000FBF727F841EC180B8DED008B29A20A219F
:1055B00002A8FDF78BFE02A91D48FDF70BFE002394
:1055C0001A4619461F48006800F010FD00230A2201
:1055D00019461C48006800F0DBFB01281BD11A4863
:1055E00090ED010A10EE104A2046FBF702F841EC5C
:1055F000180B8DED008B19A20A2102A8FDF766FE9B
:1056000002A90B48FDF7E6FD00231A4619460D488E
:10561000006800F0EBFC06B0BDEC028B10BD000092
:1056200054000020B801002031252E32662D0000E4
:105630000010014032252E32662D000033252E3217
:10564000662D000058000020C401002034252E32B1
:10565000662D000035252E32662D000036252E32AF
:10566000660D0A0048B99FED150A154981ED000A3B
:105670009FED120A134981ED000A012805D19FED23
:10568000120A0F4981ED000A16E0022805D19FEDAC
:105690000F0A0B4981ED000A0EE0032805D19FEDAA
:1056A0000A0A084981ED000A06E0042804D19FEDAA
:1056B000070A044981ED000A70470000000000005D
:1056C0005C000020600000200000B4420000B4C272
:1056D00001460A69D1E901309860D1E901035860B7
:1056E0005068884201D188685060002008611068C5
:1056F000401E10601068704700F1080141604FF0D3
:10570000FF31816000F10801C16001610021016089
:10571000704700210161704710B502460B685C1CA0
:105720000CB9106907E002F1080000E04068446825
:1057300024689C42FAD944684C604C68A160886037
:1057400041600A611468641C146010BD42684A60BC
:1057500093688B60936859609160086103685B1C73
:105760000360704700BF502080F31188BFF34F8F54
:10577000BFF36F8F00BF0E480068401C0C490860E3
:1057800008460068012812D10A480068C0B208B96A
:10579000012000E0002050B900BF502080F31188A4
:1057A000BFF34F8FBFF36F8F00BF00BFFEE770479F
:1057B000D800002004ED00E00D48006850B900BF9B
:1057C000502080F31188BFF34F8FBFF36F8F00BF5E
:1057D00000BFFEE706480068401E0549086008460D
:1057E000006820B9002080F3118800BF00BF704717
:1057F000D800002070B506463546B6B1083D2C46A7
:1058000000F09CF96168094800E00068026852688D
:105810008A42FAD302682260046005496068096818
:1058200008440349086000F081FF70BDE4000020D7
:10583000F4000020064800684FF47A71B0FBF1F0E4
:10584000401E4FF0E02148610720086170470000CA
:105850000000002070B5FAF7F9FC0446102C16D3AE
:1058600004F1E02090F8F05315480078854201DB00
:10587000012000E0002050B900BF502080F31188C3
:10588000BFF34F8FBFF36F8F00BF00BFFEE70D4820
:10589000006800F4E0600C490968884201D80120E2
:1058A00000E0002050B900BF502080F31188BFF302
:1058B0004F8FBFF36F8F00BF00BFFEE770BD0000CA
:1058C000DC0000200CED00E0E0000020024600209B
:1058D0000BE0084B53F8303033B9064B43F8301027
:1058E00003EBC0035A6002E0401C0828F1D300BF5C
:1058F00070470000180200202DE9F04105460E46D1
:1059000017462C46FFF72EFF94F94400401C10B9AF
:10591000002084F8440094F94500401C10B9002090
:1059200084F84500FFF748FFA06B28B93A46314696
:1059300004F1240000F028F82046FFF7CCFCBDE875
:10594000F08100000120014908607047AC00002090
:1059500070B504460D4654B900BF502080F311883D
:10596000BFF34F8FBFF36F8F00BF00BFFEE7054847
:10597000016818312046FFF7CFFE01212846FFF7C6
:105980006FF870BD8800002070B505460E461446BD
:1059900055B900BF502080F31188BFF34F8FBFF37C
:1059A0006F8F00BF00BFFEE7064801681831284628
:1059B000FFF7CCFE0CB14FF0FF3621463046FFF723
:1059C0004FF870BD8800002070B505462C46002DAC
:1059D0004BD02649E06A0968C96A884245D2A06965
:1059E00000F0004028B921480068C06AC0F10500F5
:1059F000A061E16A01EB81011D4A02EB810160694E
:105A0000884201D1012000E0002050B3201DFFF7A3
:105A10005FFE78B9E06A00EB8000154951F820007C
:105A200040B994F82C10012088401249096881433C
:105A3000104801600D480068C06AE06294F82C10BC
:105A4000012088400B49096808430A490860E16A57
:105A500001EB8101064A02EB8100211DFFF776FE72
:105A600003E002480068C06AE06270BD8800002060
:105A700058020020A000002050B900BF502181F33F
:105A80001188BFF34F8FBFF36F8F00BF00BFFEE7DA
:105A900003490968016003490968416070470000D3
:105AA000B00000209C0000201CB51D4800210B46C2
:105AB0008222CDE900101BA11C4800F09DFC044689
:105AC000012C02D100F0B4FE0446012C15D100BF18
:105AD000502080F31188BFF34F8FBFF36F8F00BF4B
